:100000000C9466000C948E000C948E000C948E0060
:100010000C948E000C948E000C948E000C948E0028
:100020000C948E000C948E000C948E000C948E0018
:100030000C948E000C948E000C948E000C948E0008
:100040000C947E030C948E000C94EE030C94C80365
:100050000C948E000C948E000C948E000C948E00E8
:100060000C948E000C948E00000102030405111202
:10007000131415160A0B0C0D0E0F000000080002D9
:100080000100000304070000000000000000000061
:100090000000250028002B0000000000240027009D
:1000A0002A000404040404040404020202020202FA
:1000B000030303030303010204081020408001022C
:1000C00004081020010204081020200411241FBE7F
:1000D000CFEFD8E0DEBFCDBF21E0A6E3B1E001C0A5
:1000E0001D92A83EB207E1F711E0A0E0B1E0EAE41A
:1000F000FCE002C005900D92A633B107D9F710E0DD
:10010000C6E6D0E004C02197FE010E941806C5365D
:10011000D107C9F70E9459040C9423060C940000DF
:1001200090E0FC01EA54FF4F2491FC01EE55FF4F93
:100130008491882399F090E0880F991FFC01E8567C
:10014000FF4FA591B491FC01E257FF4F8591949127
:100150008FB7F894EC91E22BEC938FBF089590E069
:10016000FC01E658FF4F2491FC01EA54FF4F349103
:10017000FC01EE55FF4FE491EE2309F43CC022232D
:1001800039F1233091F038F42130A9F0223001F513
:1001900084B58F7D12C0273091F02830A1F0243033
:1001A000B9F4809180008F7D03C0809180008F77AB
:1001B000809380000DC084B58F7784BD09C0809185
:1001C000B0008F7703C08091B0008F7D8093B00026
:1001D000F0E0EE0FFF1FE257FF4FA591B4919FB7DC
:1001E000F894611104C08C913095382302C0EC91D1
:1001F0003E2B3C939FBF08959CB59F7D9CBD9CB5B5
:10020000937F9CBD9CB59C7F9CBD9DB591609DBD21
:10021000682F8091DE010C94AF001F93CF93DF9382
:10022000182FEB010E949000209711F460E004C0A9
:10023000CF3FD10539F461E0812FDF91CF911F913C
:100240000C94AF00E12FF0E0E658FF4FE491E3306B
:10025000F9F048F4E130B9F0E230A1F584B58062FC
:1002600084BDC8BD34C0E730E9F0E83019F1E430AE
:1002700049F580918000806280938000D0938B004C
:10028000C0938A0024C084B5806884BDC7BD1FC0E8
:1002900080918000806880938000D0938900C09313
:1002A000880015C08091B00080688093B000C09332
:1002B000B3000DC08091B00080628093B000C09305
:1002C000B40005C0C038D1050CF0B5CFAFCFDF9179
:1002D000CF911F9108953FB7F89480913C01909180
:1002E0003D01A0913E01B0913F0126B5A89B05C0FC
:1002F0002F3F19F00196A11DB11D3FBFBA2FA92FA5
:10030000982F8827820F911DA11DB11DBC01CD0121
:1003100042E0660F771F881F991F4A95D1F708950D
:100320008F929F92AF92BF92CF92DF92EF92FF9205
:100330000E946B014B015C0185E0C82ED12CE12CA1
:10034000F12C0E946B01DC01CB0188199909AA09E3
:10035000BB09883E9340A105B10598F321E0C21A7C
:10036000D108E108F10888EE880E83E0981EA11CF0
:10037000B11CC114D104E104F10419F7FF90EF900E
:10038000DF90CF90BF90AF909F908F900895CF92C5
:10039000DF92EF92FF920F931F93CF93DF936C0145
:1003A0007A018B01C0E0D0E0CE15DF0581F0D801E5
:1003B0006D918D01D601ED91FC910190F081E02DC0
:1003C000C6010995892B11F02196EECF7E01C70158
:1003D000DF91CF911F910F91FF90EF90DF90CF9021
:1003E0000895089580E090E00895FC01538D448DB8
:1003F000252F30E0842F90E0821B930B541710F0D0
:10040000CF96089501970895FC01918D828D9817DC
:1004100061F0828DDF01A80FB11D5D968C91928DE8
:100420009F5F9F73928F90E008958FEF9FEF0895E5
:10043000FC01918D828D981731F0828DE80FF11DAE
:10044000858D90E008958FEF9FEF0895FC01918DC9
:10045000228D892F90E0805C9F4F821B91098F73C2
:100460009927089580E491E00E94260221E0892BDB
:1004700009F420E0822F0895FC01848DDF01A80F8C
:10048000B11DA35ABF4F2C91848D90E001968F73BC
:100490009927848FA689B7892C93A089B1898C91DB
:1004A000837080648C93938D848D981306C002882A
:1004B000F389E02D80818F7D80830895EF92FF92F4
:1004C0000F931F93CF93DF93EC0181E0888F9B8D77
:1004D0008C8D981305C0E889F989808185FD26C037
:1004E000F62E0B8D10E00F5F1F4F0F731127E02EBC
:1004F0008C8DE8120CC00FB607FCFACFE889F98999
:10050000808185FFF5CFCE010E943C02F1CF8B8D1B
:10051000FE01E80FF11DE35AFF4FF0829FB7F894F8
:100520000B8FEA89FB89808180620AC09FB7F894AB
:10053000EE89FF896083E889F9898081837080640E
:1005400080839FBF81E090E0DF91CF911F910F9159
:10055000FF90EF900895CF93DF93EC01888D88236F
:10056000C9F0EA89FB89808185FD05C0A889B98920
:100570008C9186FD0FC00FB607FCF5CF808185FFFB
:10058000F2CFA889B9898C9185FFEDCFCE010E9469
:100590003C02E7CFDF91CF91089580E090E0892B76
:1005A00029F00E94320281110C94000008958EBD42
:1005B00000000DB407FEFDCF8EB50895CF93C82F70
:1005C00080E00E94FC008C2F0E94D702C82F81E09F
:1005D0000E94FC008C2FCF910895EF92FF920F9311
:1005E0001F93CF93DF93182F7B01C42F80E00E94CD
:1005F000FC00812F8F7180620E94D702D82F870163
:10060000CC2339F0F80181918F010E94D702C150AB
:10061000F7CF81E00E94FC008D2FDF91CF911F91D9
:100620000F91FF90EF900895CF93DF93C82FD62FAF
:1006300080E00E94FC008C2F8F7180620E94D702A4
:10064000C82F8D2F0E94D70281E00E94FC008C2FC2
:10065000DF91CF910895CF93C82F80E00E94FC00D6
:100660008C2F8F710E94D7028FEF0E94D702C82F64
:1006700081E00E94FC008C2FCF91089580E00E94C1
:100680002B0381FD0AC080E00E942B03682F62606B
:1006900080E00E9414030C94900108950F931F931F
:1006A000CF938C0186E00E942B03C82FC77D0230B8
:1006B000110511F4C06204C00130110509F4C860CD
:1006C0006C2F86E00E94140386E00E942B0391E0C9
:1006D000C81390E0892FCF911F910F91089561E089
:1006E00087E00E94AF0060E087E00E94AF0060E01A
:1006F00070E085E00C940D010E941E061F920F927F
:100700000FB60F9211242F933F938F939F93AF9324
:10071000BF938091380190913901A0913A01B09135
:100720003B013091370123E0230F2D3720F4019650
:10073000A11DB11D05C026E8230F0296A11DB11D04
:10074000209337018093380190933901A0933A01A7
:10075000B0933B0180913C0190913D01A0913E01FD
:10076000B0913F010196A11DB11D80933C01909372
:100770003D01A0933E01B0933F01BF91AF919F9186
:100780008F913F912F910F900FBE0F901F90189552
:100790001F920F920FB60F9211242F933F934F93F6
:1007A0005F936F937F938F939F93AF93BF93EF93D9
:1007B000FF9380E491E00E943C02FF91EF91BF9192
:1007C000AF919F918F917F916F915F914F913F91E9
:1007D0002F910F900FBE0F901F9018951F920F92A0
:1007E0000FB60F9211242F938F939F93EF93FF9344
:1007F000E0915001F09151018081E0915601F0911A
:10080000570182FD12C09081809159018F5F8F73D3
:1008100020915A01821751F0E0915901F0E0E05C1B
:10082000FE4F958F8093590101C08081FF91EF9118
:100830009F918F912F910F900FBE0F901F90189541
:10084000E0E4F1E01382128288EE93E0A0E0B0E0F1
:1008500084839583A683B78388E291E09183808324
:1008600085EC90E09587848784EC90E09787868775
:1008700080EC90E0918B808B81EC90E0938B828B6D
:1008800082EC90E0958B848B86EC90E0978B868B46
:10089000118E128E138E148EEDEDF1E089E08083BF
:1008A0008AE08183128280E28383148285E08287DA
:1008B0000895CF93DF93CDB7DEB72A970FB6F8949C
:1008C000DEBF0FBECDBF789484B5826084BD84B591
:1008D000816084BD85B5826085BD85B5816085BD3B
:1008E00080916E00816080936E00109281008091F3
:1008F000810082608093810080918100816080937B
:100900008100809180008160809380008091B1009F
:1009100084608093B1008091B00081608093B000CA
:1009200080917A00846080937A0080917A0082605E
:1009300080937A0080917A00816080937A00809120
:100940007A00806880937A001092C10085E00E944E
:10095000900086E00E94900087E00E94900088E06E
:100960000E94900082E00E94900083E00E9490002C
:10097000E0915001F091510182E08083E0914C01BF
:10098000F0914D011082E0914E01F0914F018FECFA
:10099000808310925801E0915401F091550186E056
:1009A0008083E0915201F0915301808180618083C6
:1009B000E0915201F0915301808188608083E09141
:1009C0005201F0915301808180688083E09152014F
:1009D000F091530180818F7D80838091DD010E94A1
:1009E00090008091DE010E9490001FB7F8948091E2
:1009F0003601811124C0ECEAF0E08491E0ECF0E0F3
:100A00009491E82FF0E0EE0FFF1FE856FF4FA591FD
:100A1000B491EC91E92321F461E08AE00E94AF00F7
:100A20008AE00E9490008CB580618CBD8CB580649A
:100A30008CBD8DE00E9490008BE00E949000809120
:100A400036018F5F809336011FBF60E08091DD012A
:100A50000E94AF0081E00E94FC000E9490016FE5BF
:100A600084E00E94140382E090E00E944E038823F9
:100A700019F081E08093DF0180E090E00E944E0356
:100A800080E00E942B03682F6C6080E00E941403BA
:100A900060E787E00E9414036CE485E00E94140381
:100AA00082EE0E94DE0281EE0E94DE020E943E0380
:100AB00080E00E942B03682F6E7F80E00E94140369
:100AC0006FE381E00E9414036FE084E00E9414034E
:100AD00080E00E94FC0080E50E94D70283E70E942C
:100AE000D70281E00E94FC008DE10E942B03682F59
:100AF00066608DE10E9414038CE10E942B03682F35
:100B000063608CE10E94140381E08093E10180E244
:100B10008093E001E5E7F0E084914091E70160E037
:100B200071E00E94ED02EFE6F0E084916091E00157
:100B30000E94140382E00E942B03E9E6F0E0E491B6
:100B400061E070E001C0660FEA95EAF7682B82E089
:100B50000E94140360E685E00E94140386E00E9470
:100B60002B03887F682F656086E00E94140380E075
:100B700090E00E944E030E943E030E943E0380E0EC
:100B80000E942B03682F616080E00E94140360E7DD
:100B900087E00E9414038091E201882339F040919C
:100BA000E70162EE71E08AE00E94ED0281EE0E94B0
:100BB000DE0261E08091DD010E94AF0080E2D82E6C
:100BC00087E10E942B0380FD30C08FEF0E94DE0280
:100BD0001091E0011A3008F01AE08091E1018111D2
:100BE00003C00D2D011B01C000E080E00E94FC004D
:100BF00081E60E94D702CE0101967C01115038F0A7
:100C00008FEF0E94D702F70181937F01F7CF015048
:100C100020F08FEF0E94D702FACF81E00E94FC0003
:100C200060E787E00E941403CBCF0E94CD02C8CFBB
:100C3000EE0FFF1F0590F491E02D099481E090E004
:0A0C4000F8940C942306F894FFCFFB
:100C4A00314E6F646500324E6F646500334E6F64D7
:100C5A006500344E6F646500354E6F646500364E2C
:100C6A006F646500000000005E02C701F501AB0277
:060C7A002602040218022C
:00000001FF
