:100000000C945D000C9485000C9485000C94850084
:100010000C9485000C9485000C9485000C9485004C
:100020000C9485000C9485000C9485000C9485003C
:100030000C9485000C9485000C9485000C9485002C
:100040000C94AD070C9485000C9419040C94F303E4
:100050000C9485000C9485000C9485000C9485000C
:100060000C944B040C948500000000080002010071
:100070000003040700000000000000000000000072
:10008000250028002B0000000000240027002A0083
:10009000040404040404040402020202020203032E
:1000A0000303030301020408102040800102040836
:1000B00010200102040810206D0B11241FBECFEF89
:1000C000D8E0DEBFCDBF11E0A0E0B1E0E6EBFCE19F
:1000D00002C005900D92AE38B107D9F723E0AEE823
:1000E000B1E001C01D92A731B207E1F710E0CDE504
:1000F000D0E004C02197FE010E944E0ECC35D107FE
:10010000C9F70E94F7070C94590E0C940000CF9287
:10011000DF92EF92FF920F931F93CF93DF936C01C7
:100120007A018B01C0E0D0E0CE15DF0581F0D80167
:100130006D918D01D601ED91FC910190F081E02D42
:10014000C6010995892B11F02196EECF7E01C701DA
:10015000DF91CF911F910F91FF90EF90DF90CF90A3
:100160000895FC01538D448D252F30E0842F90E0BD
:10017000821B930B541710F0CF96089501970895A2
:10018000FC01918D828D981761F0828DDF01A80F9F
:10019000B11D5D968C91928D9F5F9F73928F90E0C1
:1001A00008958FEF9FEF0895FC01918D828D981730
:1001B00031F0828DE80FF11D858D90E008958FEF6D
:1001C0009FEF0895FC01918D228D892F90E0805C36
:1001D0009F4F821B91098F73992708958FE492E0B6
:1001E0000E94E20021E0892B09F420E0822F08958B
:1001F000FC01848DDF01A80FB11DA35ABF4F2C91C4
:10020000848D90E001968F739927848FA689B78992
:100210002C93A089B1898C91837080648C93938D89
:10022000848D981306C00288F389E02D80818F7D2C
:1002300080830895EF92FF920F931F93CF93DF93E4
:10024000EC0181E0888F9B8D8C8D981305C0E88927
:10025000F989808185FD26C0F62E0B8D10E00F5F99
:100260001F4F0F731127E02E8C8DE8120CC00FB6B4
:1002700007FCFACFE889F989808185FFF5CFCE01A7
:100280000E94F800F1CF8B8DFE01E80FF11DE35ABB
:10029000FF4FF0829FB7F8940B8FEA89FB8980812A
:1002A00080620AC09FB7F894EE89FF896083E8896D
:1002B000F98980818370806480839FBF81E090E0B2
:1002C000DF91CF911F910F91FF90EF900895CF9301
:1002D000DF93EC01888D8823C9F0EA89FB8980814E
:1002E00085FD05C0A889B9898C9186FD0FC00FB620
:1002F00007FCF5CF808185FFF2CFA889B9898C9161
:1003000085FFEDCFCE010E94F800E7CFDF91CF91BE
:10031000089580E090E0892B29F00E94EE00811181
:100320000C940000089585ED8093BC008091BC0082
:1003300084FDFCCF10922A0208954091D001262F0F
:1003400030E0240F311D21323105DCF420912A02E6
:100350002430C9F4FC0180E090E0861758F4309115
:10036000D0012191DC01A055BE4FA30FB11D2C93EC
:100370000196F3CF8091D001680F6093D00180E0A7
:10038000089581E0089582E008950895E091AF0115
:100390008091AE01E81730F4F0E0E257FE4F808123
:1003A00090E008958FEF9FEF08959091AF018091B5
:1003B000AE01981750F4E92FF0E0E257FE4F20818C
:1003C00030E09F5F9093AF0102C02FEF3FEFC90174
:1003D00008958091AE0190E02091AF01821B9109B8
:1003E0000895CF92DF92EF92FF920F931F93CF93D6
:1003F000DF937C01CB018A0120912B02222389F01B
:10040000EB016B01C40ED51ECC15DD0569F06991B9
:10041000D701ED91FC910190F081E02DC701099584
:10042000F3CF642F0E949D01C801DF91CF911F91EE
:100430000F91FF90EF90DF90CF900895CF93DF93CF
:100440001F92CDB7DEB7698320912B022223D1F012
:1004500020914E02203240F021E030E0FC01338355
:10046000228380E090E015C080912C02E82FF0E01C
:10047000E35DFD4F998190838F5F80932C02809381
:100480004E0205C061E0CE0101960E949D0181E00F
:1004900090E00F90DF91CF910895089580E090E073
:1004A00008950E94540E1F93CF93DF9300D0CDB7D1
:1004B000DEB75A83498391E090932B0280934D02DB
:1004C00010922C0210924E028CEE92E00E941E02BC
:1004D00019816A818CEE92E00E941E02612F8CEEDF
:1004E00092E00E941E0281E00E94A10591E081112C
:1004F00090E0892F0F900F90DF91CF911F91089579
:100500002F923F924F925F926F927F928F929F9223
:10051000AF92BF92CF92DF92EF92FF920F931F9311
:10052000CF93DF93CDB7DEB728970FB6F894DEBF31
:100530000FBECDBFD82EC62E4F8349018FB7F8947A
:1005400040900002509001026090020270900302FD
:100550008FBF2D2C220CE12C1886FF24F394A42E9F
:10056000B12C33243A94980140E050E02B833C8333
:100570004D835E833F81E31608F08CC0F0922B021E
:10058000D0924D0210922C0210924E026C2D8CEEE5
:1005900092E00E941E0281E00E94A105F0922B02CF
:1005A000D0924D0210922C0210924E0280912A029B
:1005B0008111FCCFC5018E1991098132910514F08A
:1005C00080E290E0813208F080E2F0922A02F0921C
:1005D000290230922802109227029FEF980F9093E1
:1005E0002602F0920502909105029229909305024D
:1005F00090910402913071F41092040290910502DE
:100600009093BB009091BC0093FDF8CF45EC4093D4
:10061000BC0003C055EE5093BC0090912A0291306B
:10062000E1F390912702981710F480912702E6E0F9
:10063000F2E0AEE8B1E090E0981721F021912D931F
:100640009F5FFACF1092AF019093AE019091AE01EF
:100650008091AF01981709F456C00115110509F4EE
:100660003FC02FB7F8948091000290910102A091B1
:100670000202B09103022FBF84199509A609B70998
:100680002B813C814D815E8182179307A407B507BA
:1006900038F139C001151105E1F12FB7F8948091B7
:1006A000000290910102A0910202B09103022FBFBB
:1006B00084199509A609B70920E030E08017910751
:1006C000A207B30730F14F81242F30E05885852FE2
:1006D000550F990B82179307E4F48FEF888719C0A1
:1006E000D401E885AE0FB11DE7FDBA95BA83A983A1
:1006F0008CEE92E00E94D501A981BA818C93B885D5
:10070000BF5FB887A3CF8F81813208F080E2E80E07
:1007100031CF888528960FB6F894DEBF0FBECDBFC7
:10072000DF91CF911F910F91FF90EF90DF90CF90CD
:10073000BF90AF909F908F907F906F905F904F9001
:100740003F902F900895BF92CF92DF92EF92FF9249
:100750000F931F93CF93DF9300D0CDB7DEB7F82E62
:10076000E62EC42EB22ED02E08EE13E09E012E5F90
:100770003F4F41E00E948002882341F14C2D50E020
:100780004B1951094F5F5F4F81E090E002C0880F25
:10079000991FBA94E2F70197042E01C0880F0A94BA
:1007A000EAF72D2D01C0220F4A95EAF7382F309530
:1007B0009A8193238223892B8A838983AE014F5F99
:1007C0005F4F6E2D8F2D0E94650601C080E00F9057
:1007D0000F90DF91CF911F910F91FF90EF90DF90DD
:1007E000CF90BF9008951F920F920FB60F921124D1
:1007F0002F933F934F935F936F937F938F939F9329
:10080000AF93BF93EF93FF938FE492E00E94F800C1
:10081000FF91EF91BF91AF919F918F917F916F91D8
:100820005F914F913F912F910F900FBE0F901F90AE
:1008300018951F920F920FB60F9211242F938F933A
:100840009F93EF93FF93E0915F02F09160028081AC
:10085000E0916502F091660282FD12C09081809164
:1008600068028F5F8F7320916902821751F0E091C7
:100870006802F0E0E15BFD4F958F8093680201C054
:100880008081FF91EF919F918F912F910F900FBEDB
:100890000F901F9018951F920F920FB60F92112470
:1008A0002F933F934F935F936F937F938F939F9378
:1008B000AF93BF93EF93FF938091B900887F803609
:1008C00009F49CC068F5883209F45BC090F480316B
:1008D00009F454C038F4882309F4F2C0883009F4CC
:1008E0004DC0F2C0883109F44CC0803209F45DC0BB
:1008F000EBC0803409F468C048F4803309F455C073
:10090000883309F0E1C080932802D4C0803509F40F
:100910004FC0883509F45DC0883409F0D5C0D2C015
:10092000883909F4C3C0A8F4883709F467C038F4DB
:10093000883609F463C0803709F460C0C5C08838C0
:1009400009F4B4C0803909F45FC0803809F0BCC034
:100950005BC0803B09F484C038F4803A09F466C077
:10096000883A09F47DC0B0C0803C09F4A3C0883C3B
:1009700009F4A0C0883B09F486C0A6C08091050296
:1009800010C09091270280912602981770F5E0918F
:10099000270281E08E0F80932702F0E0EA5FFD4F8F
:1009A00080818093BB0085EC82C0809328028AC03E
:1009B000E091270281E08E0F809327028091BB0097
:1009C000F0E0EA5FFD4F808390912702809126023C
:1009D0006AC0E091270281E08E0F80932702809108
:1009E000BB00F0E0EA5FFD4F808380912902811116
:1009F00069C081E08093040284EA5DC083E0809353
:100A00002A021092F201CFCF8091F201803208F0D9
:100A10004DC0E091F20181E08E0F8093F201809150
:100A2000BB00F0E0EE52FE4F8083BDCF85EC80939B
:100A3000BC0010922A028091F201803230F4E091E1
:100A4000F201F0E0EE52FE4F10826091F20170E090
:100A500082ED91E0E0E0F0E009951092F20134C0FF
:100A600084E080932A021092D1011092D001E0E03C
:100A7000F0E009958091D001811105C081E080935B
:100A8000D0011092B001E091D10181E08E0F8093EE
:100A9000D101F0E0E055FE4F80818093BB00909142
:100AA000D1018091D001981708F47DCF85E880931B
:100AB000BC000AC085EC8093BC0010922A0204C0DE
:100AC000109228020E949301FF91EF91BF91AF9184
:100AD0009F918F917F916F915F914F913F912F9156
:100AE0000F900FBE0F901F9018958EBD00000DB493
:100AF00007FEFDCF8EB508953FB7F894809113039C
:100B000090911403A0911503B091160326B5A89BEC
:100B100005C02F3F19F00196A11DB11D3FBFBA2F8F
:100B2000A92F982F8827820F911DA11DB11DBC01EF
:100B3000CD0142E0660F771F881F991F4A95D1F7B4
:100B40000895282F30914E02313208F04AC080912A
:100B50002A028111FCCF90914D0242E040932A027B
:100B6000209329022FEF209328021092270230931E
:100B70002602EDE2F2E0A6E0B2E020E0321721F03A
:100B800041914D932F5FFACF1092050220910502FB
:100B9000990F922B9093050290910402913061F489
:100BA00010920402909105029093BB009091BC00BA
:100BB00093FDF8CF95EC01C095EE9093BC00909119
:100BC0002A029230E1F3909128029F3F79F08091C0
:100BD0002802803241F080912802803331F084E095
:100BE00005C081E003C082E001C083E010922C02C6
:100BF00010924E0210922B0208958F929F92AF9204
:100C0000BF92CF92DF92EF92FF920E947C054B0140
:100C10005C0185E0C82ED12CE12CF12C0E947C05D2
:100C2000DC01CB0188199909AA09BB09883E9340C8
:100C3000A105B10598F321E0C21AD108E108F10835
:100C400088EE880E83E0981EA11CB11CC114D1044B
:100C5000E104F10419F7FF90EF90DF90CF90BF907F
:100C6000AF909F908F90089590E0FC01EC55FF4F5E
:100C70002491FC01E057FF4F8491882399F090E084
:100C8000880F991FFC01EA57FF4FA591B491FC0111
:100C9000E458FF4F859194918FB7F894EC91E22B33
:100CA000EC938FBF0895009769F0FC01019000203C
:100CB000E9F73197AF01481B590BBC018FE492E073
:100CC0000C94870080E090E00895CF93DF93EA01D1
:100CD00091E090932B0280934D0210922C0210927F
:100CE0004E028CEE92E00E941E0268818CEE92E031
:100CF0000E941E0281E00E94A10591E0811190E016
:100D0000892FDF91CF910895CF92DF92EF92FF92DA
:100D10000F931F93CF93DF93CDB7DEB7A1970FB695
:100D2000F894DEBF0FBECDBF282F30E040E050E08A
:100D300019A28E010F5D1F4F8AE0C82ED12CE12C25
:100D4000F12CCA01B901A70196010E94DF0B605D79
:100D5000F80162938F01211531054105510589F78D
:100D6000CF010E945306A1960FB6F894DEBF0FBEC6
:100D7000CDBFDF91CF911F910F91FF90EF90DF904A
:100D8000CF90089590E0FC01E859FF4F2491FC01B9
:100D9000EC55FF4F3491FC01E057FF4FE491EE23F7
:100DA00009F43CC0222339F1233091F038F421308A
:100DB000A9F0223001F584B58F7D12C0273091F063
:100DC0002830A1F02430B9F4809180008F7D03C0D9
:100DD000809180008F77809380000DC084B58F77DD
:100DE00084BD09C08091B0008F7703C08091B000AE
:100DF0008F7D8093B000F0E0EE0FFF1FE458FF4FAF
:100E0000A591B4919FB7F894611104C08C9130956D
:100E1000382302C0EC913E2B3C939FBF08959CB5B4
:100E20009F7D9CBD9CB5937F9CBD9CB59C7F9CBDCC
:100E30009DB591609DBD682F809108030C94C206FA
:100E4000CF93DF93C82FD62F80E00E940F078C2FFF
:100E50008F7180620E947505C82F8D2F0E947505C5
:100E600081E00E940F078C2FDF91CF910895CF93DF
:100E7000C82F80E00E940F078C2F8F710E9475058C
:100E80008FEF0E947505C82F81E00E940F078C2FFD
:100E9000CF91089580E00E94370781FD0AC080E06D
:100EA0000E943707682F626080E00E9420070C9440
:100EB000FD0508950F931F93CF938C0186E00E9448
:100EC0003707C82FC77D0230110511F4C06204C076
:100ED0000130110509F4C8606C2F86E00E942007DC
:100EE00086E00E94370791E0C81390E0892FCF91E8
:100EF0001F910F910895CF93C82F80E00E940F0794
:100F00008C2F0E947505C82F81E00E940F078C2F3F
:100F1000CF9108950F931F93CF93DF93D82FC62FB0
:100F200080E00E940F078D2F8F7180620E947505EF
:100F3000D82F08E011E0CC2339F0F80181918F011E
:100F40000E947505C150F7CF81E00E940F078D2FD9
:100F5000DF91CF911F910F9108951F920F920FB6BD
:100F60000F9211242F933F938F939F93AF93BF932F
:100F70008091000290910102A0910202B0910302BF
:100F80003091120323E0230F2D3720F40196A11D89
:100F9000B11D05C026E8230F0296A11DB11D2093A7
:100FA00012038093000290930102A0930202B09377
:100FB00003028091130390911403A0911503B09143
:100FC00016030196A11DB11D809313039093140382
:100FD000A0931503B0931603BF91AF919F918F918A
:100FE0003F912F910F900FBE0F901F901895CF93A8
:100FF000DF9300D000D000D0CDB7DEB7789484B5B1
:10100000826084BD84B5816084BD85B5826085BD04
:1010100085B5816085BD80916E00816080936E0092
:101020001092810080918100826080938100809184
:101030008100816080938100809180008160809335
:1010400080008091B10084608093B1008091B000F5
:1010500081608093B00080917A00846080937A00F0
:1010600080917A00826080937A0080917A0081601A
:1010700080937A0080917A00806880937A00109241
:10108000C100E0915F02F091600282E08083E09114
:101090005B02F0915C021082E0915D02F0915E02D1
:1010A0008FEC808310926702E0916302F0916402FA
:1010B00086E08083E0916102F0916202808180612C
:1010C0008083E0916102F091620280818860808378
:1010D000E0916102F0916202808180688083E091FA
:1010E0006102F091620280818F7D808301E023E0C4
:1010F00042E06BE68091F8020E94A30300E022E048
:1011000044E06BE18091F8020E94A30322E044E0F6
:101110006CE18091F8020E94A303F090F80208EEBF
:1011200013E09E012F5F3F4F41E06BE68F2D0E9441
:10113000800289818F7B89838A83AE014E5F5F4FF6
:101140006BE68F2D0E9465069E012F5F3F4F41E0A9
:1011500065E78091F8020E948002882339F0898136
:101160008E7790E0959587958093F9028091F902AA
:10117000843319F480E591E002C08EE691E00E948C
:10118000530688E891E00E945306809107030E946D
:101190003406809108030E9434061FB7F8948091AA
:1011A000F301811124C0EAE9F0E08491EEEAF0E075
:1011B0009491E82FF0E0EE0FFF1FEA57FF4FA59143
:1011C000B491EC91E92321F461E08AE00E94C20627
:1011D0008AE00E9434068CB580618CBD8CB5806439
:1011E0008CBD8DE00E9434068BE00E943406809115
:1011F000F3018F5F8093F3011FBF60E080910703CD
:101200000E94C20681E00E940F070E94FD056FE563
:1012100084E00E94200782E090E00E945A07882321
:1012200019F081E08093090380E090E00E945A0762
:1012300080E00E943707682F6C6080E00E942007E2
:1012400060E787E00E9420076CE485E00E942007A9
:1012500082EE0E947B0781EE0E947B070E944A0774
:1012600080E00E943707682F6E7F80E00E94200791
:101270006FE381E00E9420076FE084E00E94200776
:1012800080E00E940F0780E50E94750583E70E94B9
:10129000750581E00E940F078DE10E943707682FD6
:1012A00066608DE10E9420078CE10E943707682F5D
:1012B00063608CE10E94200781E080930B0380E251
:1012C00080930A03609111038AE00E948A0760916B
:1012D000110380E10E948A0760910A0381E10E9464
:1012E000200760E685E00E94200786E00E9437071D
:1012F000887F682F656086E00E94200780E090E08C
:101300000E945A070E944A0760E0809107030E94EA
:10131000C20681EE0E947B0780E00E943707682F9B
:101320006E7F80E00E94200783E092E00197F1F752
:101330004EE756E066E08091F8020E94530249E0D1
:101340005FEF68E08091F8020E9453024CE055E0A4
:101350006AE08091F8020E9453024BE150E063E1A1
:101360008091F8020E9453024EEE5FEF65E180919A
:10137000F8020E94530248E050E067E18091F802D1
:101380000E94530208EE13E029EF32E04EE06BE3D7
:101390008091F8020E9480026091F9027091FA0235
:1013A0007627672776270091FB021091FC02102711
:1013B00001271027603881EC78077CF061388EE3D4
:1013C000780714F060E87EE3072E000C880B990B79
:1013D0000E942C0D2B013C0106C0412C512C2AE708
:1013E000622E26EC722E20E030E040E05FE3609158
:1013F00000017091010180910201909103010E940E
:10140000110C6B017C012DEC3CEC4DE952E40E9487
:10141000110C9B01AC01C701B6010E94820C4B016B
:101420005C019B01AC0160E070E080E89FE30E94FA
:10143000100CA70196010E94E10D609300017093CA
:1014400001018093020190930301C090F401D090B8
:10145000F501E090F601F090F701A7019601C301B4
:10146000B2010E94100CA50194010E94E10DA70198
:1014700096010E94110C6B017C016093F401709342
:10148000F5018093F6019093F7016093FC0170934E
:10149000FD018093FE019093FF01003881EC180755
:1014A00084F0B80101388EE3180714F060E87EE399
:1014B000072E000C880B990B0E942C0D2B013C0170
:1014C00006C0412C512C9AE7692E96EC792E20E02B
:1014D00030E040EA50E46091040170910501809190
:1014E0000601909107010E94110C4B015C012DEC4B
:1014F0003CEC4DE952E40E94110C9B01AC01C5018A
:10150000B4010E94820C6B837C838D839E839B013C
:10151000AC0160E070E080E89FE30E94100CA50140
:1015200094010E94E10D6093040170930501809382
:101530000601909307018090F8019090F901A09026
:10154000FA01B090FB01A5019401C301B2010E9410
:10155000100C2B813C814D815E810E94E10DA50123
:1015600094010E94110C4B015C016093F80170938F
:10157000F9018093FA019093FB0120E030E0A9018A
:10158000C701B6010E94DC0D181624F0C701B60190
:10159000905802C0C701B60120E030EC4FE055E49E
:1015A0000E94DC0D18167CF520E030E0A901C7018F
:1015B000B6010E947D0C87FF04C0712C66246394E1
:1015C00003C077247394612C20E030E0A901C701A7
:1015D000B6010E94DC0D18161CF4C701B60103C049
:1015E000C701B60190580E94F40CAFEFB0E09B0128
:1015F000AC010E94D40B20E83EE340E050E00E94A2
:10160000B50BF22E03C0F12C712C612C17FF03C017
:101610001195019511090D3F18407CF120E030E053
:10162000A901C501B4010E947D0C87FF03C010E031
:1016300001E002C011E000E020E030E0A901C501B6
:10164000B4010E94DC0D18161CF4C501B40103C0DE
:10165000C501B40190580E94F40CA7E3B0E09B01CF
:10166000AC010E94D40B20E83EE340E050E00E9431
:10167000B50B88ECE82EE20E03C0E12C10E000E090
:10168000802F0E9484068BE891E00E945306812FF0
:101690000E9484068BE891E00E945306862D0E94EA
:1016A00084068BE891E00E945306872D0E948406F1
:1016B0008BE891E00E9453068F2D0E9484068BE8F0
:1016C00091E00E9453068E2D0E94840688E891E0E6
:1016D0000E9453060E94890155CEEFE4F2E0138286
:1016E000128288EE93E0A0E0B0E084839583A68325
:1016F000B78320E331E03183208325EC30E0358768
:10170000248724EC30E03787268720EC30E0318BCB
:10171000208B21EC30E0338B228B22EC30E0358BB8
:10172000248B26EC30E0378B268B118E128E138E95
:10173000148EECEEF2E01382128284839583A683EA
:10174000B78382E491E091838083E7E0F3E089E06E
:1017500080838AE08183128280E28383148285E021
:10176000828788E68093F8020895052E97FB1EF481
:1017700000940E94CC0B57FD07D00E94DF0B07FCA2
:1017800003D04EF40C94CC0B509540953095219598
:101790003F4F4F4F5F4F089590958095709561959D
:1017A0007F4F8F4F9F4F08950E94010CA59F900D72
:1017B000B49F900DA49F800D911D11240895A1E266
:1017C0001A2EAA1BBB1BFD010DC0AA1FBB1FEE1FBB
:1017D000FF1FA217B307E407F50720F0A21BB30B06
:1017E000E40BF50B661F771F881F991F1A9469F782
:1017F00060957095809590959B01AC01BD01CF01DE
:101800000895A29FB001B39FC001A39F700D811DD9
:101810001124911DB29F700D811D1124911D0895F9
:101820005058BB27AA270E94280C0C94A20D0E9496
:10183000940D38F00E949B0D20F039F49F3F19F46D
:1018400026F40C94910D0EF4E095E7FB0C948B0DAF
:10185000E92F0E94B30D58F3BA1762077307840784
:10186000950720F079F4A6F50C94D50D0EF4E095CB
:101870000B2EBA2FA02D0B01B90190010C01CA014A
:10188000A0011124FF27591B99F0593F50F4503EF5
:1018900068F11A16F040A22F232F342F4427585FE7
:1018A000F3CF469537952795A795F0405395C9F7FF
:1018B0007EF41F16BA0B620B730B840BBAF09150B7
:1018C000A1F0FF0FBB1F661F771F881FC2F70EC056
:1018D000BA0F621F731F841F48F487957795679529
:1018E000B795F7959E3F08F0B0CF9395880F08F015
:1018F0009927EE0F9795879508950E94670D08F434
:1019000081E008950E94960C0C94A20D0E949B0DFC
:1019100058F00E94940D40F029F45F3F29F00C9498
:101920008B0D51110C94D60D0C94910D0E94B30D9A
:1019300068F39923B1F3552391F3951B550BBB27FE
:10194000AA2762177307840738F09F5F5F4F220F43
:10195000331F441FAA1FA9F335D00E2E3AF0E0E83A
:1019600032D091505040E695001CCAF72BD0FE2F84
:1019700029D0660F771F881FBB1F26173707480718
:10198000AB07B0E809F0BB0B802DBF01FF279358D0
:101990005F4F3AF09E3F510578F00C948B0D0C94FC
:1019A000D60D5F3FE4F3983ED4F38695779567951F
:1019B000B795F7959F5FC9F7880F911D9695879505
:1019C00097F90895E1E0660F771F881FBB1F621724
:1019D00073078407BA0720F0621B730B840BBA0BE2
:1019E000EE1F88F7E09508950E94FB0C6894B111F2
:1019F0000C94D60D08950E94BB0D88F09F5798F067
:101A0000B92F9927B751B0F0E1F0660F771F881F03
:101A1000991F1AF0BA95C9F714C0B13091F00E941D
:101A2000D50DB1E008950C94D50D672F782F882738
:101A3000B85F39F0B93FCCF3869577956795B39544
:101A4000D9F73EF490958095709561957F4F8F4FB3
:101A50009F4F0895E89409C097FB3EF490958095B8
:101A6000709561957F4F8F4F9F4F9923A9F0F92F64
:101A700096E9BB279395F695879577956795B795E2
:101A8000F111F8CFFAF4BB0F11F460FF1BC06F5FC8
:101A90007F4F8F4F9F4F16C0882311F096E911C0DA
:101AA000772321F09EE8872F762F05C0662371F0FB
:101AB00096E8862F70E060E02AF09A95660F771F0F
:101AC000881FDAF7880F9695879597F90895990FEB
:101AD0000008550FAA0BE0E8FEEF16161706E807F8
:101AE000F907C0F012161306E407F50798F0621B19
:101AF000730B840B950B39F40A2661F0232B242BEE
:101B0000252B21F408950A2609F4A140A6958FEF0C
:101B1000811D811D089597F99F6780E870E060E05E
:101B200008959FEF80EC089500240A941616170676
:101B300018060906089500240A94121613061406BE
:101B400005060895092E0394000C11F4882352F021
:101B5000BB0F40F4BF2B11F460FF04C06F5F7F4FD9
:101B60008F4F9F4F089557FD9058440F551F59F0C0
:101B70005F3F71F04795880F97FB991F61F09F3F7A
:101B800079F087950895121613061406551FF2CFA3
:101B90004695F1DF08C0161617061806991FF1CFF3
:101BA00086957105610508940895E894BB2766271A
:101BB0007727CB0197F908950E94670D08F48FEFFE
:101BC00008950E94F40D0C94A20D0E94940D38F01B
:101BD0000E949B0D20F0952311F00C948B0D0C941A
:101BE000910D11240C94D60D0E94B30D70F3959FA6
:101BF000C1F3950F50E0551F629FF001729FBB2704
:101C0000F00DB11D639FAA27F00DB11DAA1F649F9F
:101C10006627B00DA11D661F829F2227B00DA11D52
:101C2000621F739FB00DA11D621F839FA00D611DD8
:101C3000221F749F3327A00D611D231F849F600DF9
:101C4000211D822F762F6A2F11249F5750409AF022
:101C5000F1F088234AF0EE0FFF1FBB1F661F771FAE
:101C6000881F91505040A9F79E3F510580F00C9479
:101C70008B0D0C94D60D5F3FE4F3983ED4F386951C
:101C800077956795B795F795E7959F5FC1F7FE2B19
:101C9000880F911D9695879597F90895EE0FFF1F70
:101CA0000590F491E02D099481E090E0F8940C9473
:061CB000590EF894FFCF6D
:101CB6000000803F0000803F314E6F646500324E69
:101CC6006F646500334E6F646500344E6F64650063
:101CD600354E6F646500364E6F6465000000000087
:101CE6001A018700B1006701E200C000D4000000BD
:101CF60000001E02F1014E02C501E901D501C6012F
:101D06004D50553630353020636F6E6E656374699D
:101D16006F6E207375636365737366756C004D50E3
:101D2600553630353020636F6E6E656374696F6E3D
:0E1D3600206661696C6564000D0A00200000E3
:00000001FF
