:100000000C945D000C9485000C9485000C94850084
:100010000C9485000C9485000C9485000C9485004C
:100020000C9485000C9485000C9485000C9485003C
:100030000C9485000C9485000C9485000C9485002C
:100040000C94AD070C9485000C9419040C94F303E4
:100050000C9485000C9485000C9485000C9485000C
:100060000C944B040C948500000000080002010071
:100070000003040700000000000000000000000072
:10008000250028002B0000000000240027002A0083
:10009000040404040404040402020202020203032E
:1000A0000303030301020408102040800102040836
:1000B0001020010204081020A20B11241FBECFEF54
:1000C000D8E0DEBFCDBF11E0A0E0B1E0E0E2FDE1AD
:1000D00002C005900D92A439B107D9F723E0A4E935
:1000E000B1E001C01D92AD31B207E1F710E0CDE5FE
:1000F000D0E004C02197FE010E94830ECC35D107C9
:10010000C9F70E94F7070C948E0E0C940000CF9252
:10011000DF92EF92FF920F931F93CF93DF936C01C7
:100120007A018B01C0E0D0E0CE15DF0581F0D80167
:100130006D918D01D601ED91FC910190F081E02D42
:10014000C6010995892B11F02196EECF7E01C701DA
:10015000DF91CF911F910F91FF90EF90DF90CF90A3
:100160000895FC01538D448D252F30E0842F90E0BD
:10017000821B930B541710F0CF96089501970895A2
:10018000FC01918D828D981761F0828DDF01A80F9F
:10019000B11D5D968C91928D9F5F9F73928F90E0C1
:1001A00008958FEF9FEF0895FC01918D828D981730
:1001B00031F0828DE80FF11D858D90E008958FEF6D
:1001C0009FEF0895FC01918D228D892F90E0805C36
:1001D0009F4F821B91098F739927089585E592E0BF
:1001E0000E94E20021E0892B09F420E0822F08958B
:1001F000FC01848DDF01A80FB11DA35ABF4F2C91C4
:10020000848D90E001968F739927848FA689B78992
:100210002C93A089B1898C91837080648C93938D89
:10022000848D981306C00288F389E02D80818F7D2C
:1002300080830895EF92FF920F931F93CF93DF93E4
:10024000EC0181E0888F9B8D8C8D981305C0E88927
:10025000F989808185FD26C0F62E0B8D10E00F5F99
:100260001F4F0F731127E02E8C8DE8120CC00FB6B4
:1002700007FCFACFE889F989808185FFF5CFCE01A7
:100280000E94F800F1CF8B8DFE01E80FF11DE35ABB
:10029000FF4FF0829FB7F8940B8FEA89FB8980812A
:1002A00080620AC09FB7F894EE89FF896083E8896D
:1002B000F98980818370806480839FBF81E090E0B2
:1002C000DF91CF911F910F91FF90EF900895CF9301
:1002D000DF93EC01888D8823C9F0EA89FB8980814E
:1002E00085FD05C0A889B9898C9186FD0FC00FB620
:1002F00007FCF5CF808185FFF2CFA889B9898C9161
:1003000085FFEDCFCE010E94F800E7CFDF91CF91BE
:10031000089580E090E0892B29F00E94EE00811181
:100320000C940000089585ED8093BC008091BC0082
:1003300084FDFCCF1092300208954091D601262F03
:1003400030E0240F311D21323105DCF420913002E0
:100350002430C9F4FC0180E090E0861758F4309115
:10036000D6012191DC01AA54BE4FA30FB11D2C93DD
:100370000196F3CF8091D601680F6093D60180E09B
:10038000089581E0089582E008950895E091B5010F
:100390008091B401E81730F4F0E0EC56FE4F808114
:1003A00090E008958FEF9FEF08959091B5018091AF
:1003B000B401981750F4E92FF0E0EC56FE4F20817D
:1003C00030E09F5F9093B50102C02FEF3FEFC9016E
:1003D00008958091B40190E02091B501821B9109AC
:1003E0000895CF92DF92EF92FF920F931F93CF93D6
:1003F000DF937C01CB018A0120913102222389F015
:10040000EB016B01C40ED51ECC15DD0569F06991B9
:10041000D701ED91FC910190F081E02DC701099584
:10042000F3CF642F0E949D01C801DF91CF911F91EE
:100430000F91FF90EF90DF90CF900895CF93DF93CF
:100440001F92CDB7DEB76983209131022223D1F00C
:1004500020915402203240F021E030E0FC0133834F
:10046000228380E090E015C080913202E82FF0E016
:10047000ED5CFD4F998190838F5F80933202809372
:10048000540205C061E0CE0101960E949D0181E009
:1004900090E00F90DF91CF910895089580E090E073
:1004A00008950E94890E1F93CF93DF9300D0CDB79C
:1004B000DEB75A83498391E09093310280935302CF
:1004C000109232021092540282EF92E00E941E02B9
:1004D00019816A8182EF92E00E941E02612F82EFF1
:1004E00092E00E941E0281E00E94A10591E081112C
:1004F00090E0892F0F900F90DF91CF911F91089579
:100500002F923F924F925F926F927F928F929F9223
:10051000AF92BF92CF92DF92EF92FF920F931F9311
:10052000CF93DF93CDB7DEB728970FB6F894DEBF31
:100530000FBECDBFD82EC62E4F8349018FB7F8947A
:1005400040900602509007026090080270900902E5
:100550008FBF2D2C220CE12C1886FF24F394A42E9F
:10056000B12C33243A94980140E050E02B833C8333
:100570004D835E833F81E31608F08CC0F092310218
:10058000D092530210923202109254026C2D82EFDC
:1005900092E00E941E0281E00E94A105F0923102C9
:1005A000D092530210923202109254028091300283
:1005B0008111FCCFC5018E1991098132910514F08A
:1005C00080E290E0813208F080E2F0923002F09216
:1005D0002F0230922E0210922D029FEF980F9093CF
:1005E0002C02F0920B0290910B02922990930B0235
:1005F00090910A02913071F410920A0290910B02CC
:100600009093BB009091BC0093FDF8CF45EC4093D4
:10061000BC0003C055EE5093BC0090913002913065
:10062000E1F390912D02981710F480912D02ECE0E7
:10063000F2E0A4E9B1E090E0981721F021912D9328
:100640009F5FFACF1092B5019093B4019091B401DD
:100650008091B501981709F456C00115110509F4E8
:100660003FC02FB7F8948091060290910702A091A5
:100670000802B09109022FBF84199509A609B7098C
:100680002B813C814D815E8182179307A407B507BA
:1006900038F139C001151105E1F12FB7F8948091B7
:1006A000060290910702A0910802B09109022FBFA3
:1006B00084199509A609B70920E030E08017910751
:1006C000A207B30730F14F81242F30E05885852FE2
:1006D000550F990B82179307E4F48FEF888719C0A1
:1006E000D401E885AE0FB11DE7FDBA95BA83A983A1
:1006F00082EF92E00E94D501A981BA818C93B885DE
:10070000BF5FB887A3CF8F81813208F080E2E80E07
:1007100031CF888528960FB6F894DEBF0FBECDBFC7
:10072000DF91CF911F910F91FF90EF90DF90CF90CD
:10073000BF90AF909F908F907F906F905F904F9001
:100740003F902F900895BF92CF92DF92EF92FF9249
:100750000F931F93CF93DF9300D0CDB7DEB7F82E62
:10076000E62EC42EB22ED02E08EE13E09E012E5F90
:100770003F4F41E00E948002882341F14C2D50E020
:100780004B1951094F5F5F4F81E090E002C0880F25
:10079000991FBA94E2F70197042E01C0880F0A94BA
:1007A000EAF72D2D01C0220F4A95EAF7382F309530
:1007B0009A8193238223892B8A838983AE014F5F99
:1007C0005F4F6E2D8F2D0E94650601C080E00F9057
:1007D0000F90DF91CF911F910F91FF90EF90DF90DD
:1007E000CF90BF9008951F920F920FB60F921124D1
:1007F0002F933F934F935F936F937F938F939F9329
:10080000AF93BF93EF93FF9385E592E00E94F800CA
:10081000FF91EF91BF91AF919F918F917F916F91D8
:100820005F914F913F912F910F900FBE0F901F90AE
:1008300018951F920F920FB60F9211242F938F933A
:100840009F93EF93FF93E0916502F09166028081A0
:10085000E0916B02F0916C0282FD12C09081809158
:100860006E028F5F8F7320916F02821751F0E091BB
:100870006E02F0E0EB5AFD4F958F80936E0201C03F
:100880008081FF91EF919F918F912F910F900FBEDB
:100890000F901F9018951F920F920FB60F92112470
:1008A0002F933F934F935F936F937F938F939F9378
:1008B000AF93BF93EF93FF938091B900887F803609
:1008C00009F49CC068F5883209F45BC090F480316B
:1008D00009F454C038F4882309F4F2C0883009F4CC
:1008E0004DC0F2C0883109F44CC0803209F45DC0BB
:1008F000EBC0803409F468C048F4803309F455C073
:10090000883309F0E1C080932E02D4C0803509F409
:100910004FC0883509F45DC0883409F0D5C0D2C015
:10092000883909F4C3C0A8F4883709F467C038F4DB
:10093000883609F463C0803709F460C0C5C08838C0
:1009400009F4B4C0803909F45FC0803809F0BCC034
:100950005BC0803B09F484C038F4803A09F466C077
:10096000883A09F47DC0B0C0803C09F4A3C0883C3B
:1009700009F4A0C0883B09F486C0A6C080910B0290
:1009800010C090912D0280912C02981770F5E09183
:100990002D0281E08E0F80932D02F0E0E45FFD4F89
:1009A00080818093BB0085EC82C080932E028AC038
:1009B000E0912D0281E08E0F80932D028091BB008B
:1009C000F0E0E45FFD4F808390912D0280912C0236
:1009D0006AC0E0912D0281E08E0F80932D028091FC
:1009E000BB00F0E0E45FFD4F808380912F02811116
:1009F00069C081E080930A0284EA5DC083E080934D
:100A000030021092F801CFCF8091F801803208F0C7
:100A10004DC0E091F80181E08E0F8093F801809144
:100A2000BB00F0E0E852FE4F8083BDCF85EC8093A1
:100A3000BC00109230028091F801803230F4E091D5
:100A4000F801F0E0E852FE4F10826091F80170E08A
:100A500088ED91E0E0E0F0E009951092F80134C0F3
:100A600084E0809330021092D7011092D601E0E02A
:100A7000F0E009958091D601811105C081E0809355
:100A8000D6011092B601E091D70181E08E0F8093DC
:100A9000D701F0E0EA54FE4F80818093BB00909133
:100AA000D7018091D601981708F47DCF85E880930F
:100AB000BC000AC085EC8093BC001092300204C0D8
:100AC00010922E020E949301FF91EF91BF91AF917E
:100AD0009F918F917F916F915F914F913F912F9156
:100AE0000F900FBE0F901F9018958EBD00000DB493
:100AF00007FEFDCF8EB508953FB7F8948091190396
:100B000090911A03A0911B03B0911C0326B5A89BDA
:100B100005C02F3F19F00196A11DB11D3FBFBA2F8F
:100B2000A92F982F8827820F911DA11DB11DBC01EF
:100B3000CD0142E0660F771F881F991F4A95D1F7B4
:100B40000895282F30915402313208F04AC0809124
:100B500030028111FCCF9091530242E04093300269
:100B600020932F022FEF20932E0210922D0230930C
:100B70002C02E3E3F2E0ACE0B2E020E0321721F037
:100B800041914D932F5FFACF10920B0220910B02EF
:100B9000990F922B90930B0290910A02913061F47D
:100BA00010920A0290910B029093BB009091BC00AE
:100BB00093FDF8CF95EC01C095EE9093BC00909119
:100BC00030029230E1F390912E029F3F79F08091B4
:100BD0002E02803241F080912E02803331F084E089
:100BE00005C081E003C082E001C083E010923202C0
:100BF000109254021092310208958F929F92AF92F8
:100C0000BF92CF92DF92EF92FF920E947C054B0140
:100C10005C0185E0C82ED12CE12CF12C0E947C05D2
:100C2000DC01CB0188199909AA09BB09883E9340C8
:100C3000A105B10598F321E0C21AD108E108F10835
:100C400088EE880E83E0981EA11CB11CC114D1044B
:100C5000E104F10419F7FF90EF90DF90CF90BF907F
:100C6000AF909F908F90089590E0FC01EC55FF4F5E
:100C70002491FC01E057FF4F8491882399F090E084
:100C8000880F991FFC01EA57FF4FA591B491FC0111
:100C9000E458FF4F859194918FB7F894EC91E22B33
:100CA000EC938FBF0895009769F0FC01019000203C
:100CB000E9F73197AF01481B590BBC0185E592E07C
:100CC0000C94870080E090E00895CF93DF93EA01D1
:100CD00091E090933102809353021092320210926D
:100CE000540282EF92E00E941E02688182EF92E03D
:100CF0000E941E0281E00E94A10591E0811190E016
:100D0000892FDF91CF910895CF92DF92EF92FF92DA
:100D10000F931F93CF93DF93CDB7DEB7A1970FB695
:100D2000F894DEBF0FBECDBF282F30E040E050E08A
:100D300019A28E010F5D1F4F8AE0C82ED12CE12C25
:100D4000F12CCA01B901A70196010E94140C605D43
:100D5000F80162938F01211531054105510589F78D
:100D6000CF010E945306A1960FB6F894DEBF0FBEC6
:100D7000CDBFDF91CF911F910F91FF90EF90DF904A
:100D8000CF90089590E0FC01E859FF4F2491FC01B9
:100D9000EC55FF4F3491FC01E057FF4FE491EE23F7
:100DA00009F43CC0222339F1233091F038F421308A
:100DB000A9F0223001F584B58F7D12C0273091F063
:100DC0002830A1F02430B9F4809180008F7D03C0D9
:100DD000809180008F77809380000DC084B58F77DD
:100DE00084BD09C08091B0008F7703C08091B000AE
:100DF0008F7D8093B000F0E0EE0FFF1FE458FF4FAF
:100E0000A591B4919FB7F894611104C08C9130956D
:100E1000382302C0EC913E2B3C939FBF08959CB5B4
:100E20009F7D9CBD9CB5937F9CBD9CB59C7F9CBDCC
:100E30009DB591609DBD682F80910E030C94C206F4
:100E4000CF93DF93C82FD62F80E00E940F078C2FFF
:100E50008F7180620E947505C82F8D2F0E947505C5
:100E600081E00E940F078C2FDF91CF910895CF93DF
:100E7000C82F80E00E940F078C2F8F710E9475058C
:100E80008FEF0E947505C82F81E00E940F078C2FFD
:100E9000CF91089580E00E94370781FD0AC080E06D
:100EA0000E943707682F626080E00E9420070C9440
:100EB000FD0508950F931F93CF938C0186E00E9448
:100EC0003707C82FC77D0230110511F4C06204C076
:100ED0000130110509F4C8606C2F86E00E942007DC
:100EE00086E00E94370791E0C81390E0892FCF91E8
:100EF0001F910F910895CF93C82F80E00E940F0794
:100F00008C2F0E947505C82F81E00E940F078C2F3F
:100F1000CF9108950F931F93CF93DF93D82FC62FB0
:100F200080E00E940F078D2F8F7180620E947505EF
:100F3000D82F0FE011E0CC2339F0F80181918F0117
:100F40000E947505C150F7CF81E00E940F078D2FD9
:100F5000DF91CF911F910F9108951F920F920FB6BD
:100F60000F9211242F933F938F939F93AF93BF932F
:100F70008091060290910702A0910802B0910902A7
:100F80003091180323E0230F2D3720F40196A11D83
:100F9000B11D05C026E8230F0296A11DB11D2093A7
:100FA00018038093060290930702A0930802B0935F
:100FB00009028091190390911A03A0911B03B0912B
:100FC0001C030196A11DB11D8093190390931A0370
:100FD000A0931B03B0931C03BF91AF919F918F917E
:100FE0003F912F910F900FBE0F901F901895CF93A8
:100FF000DF9300D000D000D0CDB7DEB7789484B5B1
:10100000826084BD84B5816084BD85B5826085BD04
:1010100085B5816085BD80916E00816080936E0092
:101020001092810080918100826080938100809184
:101030008100816080938100809180008160809335
:1010400080008091B10084608093B1008091B000F5
:1010500081608093B00080917A00846080937A00F0
:1010600080917A00826080937A0080917A0081601A
:1010700080937A0080917A00806880937A00109241
:10108000C100E0916502F091660282E08083E09108
:101090006102F09162021082E0916302F0916402B9
:1010A0008FEC808310926D02E0916902F0916A02E8
:1010B00086E08083E0916702F09168028081806120
:1010C0008083E0916702F09168028081886080836C
:1010D000E0916702F0916802808180688083E091EE
:1010E0006702F091680280818F7D808301E023E0B8
:1010F00042E06BE68091FE020E94A30300E022E042
:1011000044E06BE18091FE020E94A30322E044E0F0
:101110006CE18091FE020E94A303F090FE0208EEB3
:1011200013E09E012F5F3F4F41E06BE68F2D0E9441
:10113000800289818F7B89838A83AE014E5F5F4FF6
:101140006BE68F2D0E9465069E012F5F3F4F41E0A9
:1011500065E78091FE020E948002882339F0898130
:101160008E7790E0959587958093FF028091FF029E
:10117000843319F487E591E002C085E791E00E948D
:1011800053068FE891E00E94530680910D030E9460
:10119000340680910E030E9434061FB7F8948091A4
:1011A000F901811124C0EAE9F0E08491EEEAF0E06F
:1011B0009491E82FF0E0EE0FFF1FEA57FF4FA59143
:1011C000B491EC91E92321F461E08AE00E94C20627
:1011D0008AE00E9434068CB580618CBD8CB5806439
:1011E0008CBD8DE00E9434068BE00E943406809115
:1011F000F9018F5F8093F9011FBF60E080910D03BB
:101200000E94C20681E00E940F070E94FD056FE563
:1012100084E00E94200782E090E00E945A07882321
:1012200019F081E080930F0380E090E00E945A075C
:1012300080E00E943707682F6C6080E00E942007E2
:1012400060E787E00E9420076CE485E00E942007A9
:1012500082EE0E947B0781EE0E947B070E944A0774
:1012600080E00E943707682F6E7F80E00E94200791
:101270006FE381E00E9420076FE084E00E94200776
:1012800080E00E940F0780E50E94750583E70E94B9
:10129000750581E00E940F078DE10E943707682FD6
:1012A00066608DE10E9420078CE10E943707682F5D
:1012B00063608CE10E94200781E08093110380E24B
:1012C00080931003609117038AE00E948A0760915F
:1012D000170380E10E948A076091100381E10E9458
:1012E000200760E685E00E94200786E00E9437071D
:1012F000887F682F656086E00E94200780E090E08C
:101300000E945A070E944A0760E080910D030E94E4
:10131000C20681EE0E947B0780E00E943707682F9B
:101320006E7F80E00E94200783E092E00197F1F752
:101330004EE756E066E08091FE020E94530249E0CB
:101340005FEF68E08091FE020E9453024CE055E09E
:101350006AE08091FE020E9453024BE150E063E19B
:101360008091FE020E9453024EEE5FEF65E1809194
:10137000FE020E94530248E050E067E18091FE02C5
:101380000E94530222242A943324339408EE13E05B
:101390002FEF32E04EE06BE38091FE020E9480026C
:1013A0000091FF0210910003102701271027A09041
:1013B0000103B09002039A2D8B2D9C838B83003800
:1013C00091EC190784F0B8010138EEE31E0714F020
:1013D00060E87EE3072E000C880B990B0E94610DDC
:1013E0004B015C0106C0812C912C3AE7A32E36EC10
:1013F000B32E20E030E040E05FE3609100017091A7
:10140000010180910201909103010E94460C6B0141
:101410007C012DEC3CEC4DE952E40E94460C9B0112
:10142000AC01C701B6010E94B70C2B013C019B0126
:10143000AC0160E070E080E89FE30E94450CA701EA
:1014400096010E94160E6093000170930101809333
:10145000020190930301C090FA01D090FB01E0904B
:10146000FC01F090FD01A7019601C501B4010E94A5
:10147000450CA30192010E94160EA70196010E943D
:10148000460C6B017C016093FA017093FB01809321
:10149000FC019093FD01609302027093030280931C
:1014A0000402909305028B819C818038E1EC9E07B9
:1014B0007CF0BC0181389E4314F060E87EE3072E87
:1014C000000C880B990B0E94610D2B013C0106C09A
:1014D000412C512C2AE7622E26EC722E20E030E0BF
:1014E00040EA50E460910401709105018091060189
:1014F000909107010E94460C4B015C012DEC3CECE5
:101500004DE952E40E94460C9B01AC01C501B401B7
:101510000E94B70C6B837C838D839E839B01AC01FF
:1015200060E070E080E89FE30E94450CA501940113
:101530000E94160E609304017093050180930601CA
:10154000909307018090FE019090FF01A09000020F
:10155000B0900102A5019401C301B2010E94450CA3
:101560002B813C814D815E810E94160EA501940164
:101570000E94460C4B015C016093FE017093FF01D9
:10158000809300029093010220E030E0A9010E94C4
:10159000110E181624F0C501B401905802C0C501FF
:1015A000B40120E030E443E855E40E94110E18161F
:1015B00084F420E030E0A901C501B4010E94B20C1E
:1015C00087FF03C030920A0102C030920B012092C3
:1015D0000D0117FF03C01195019511090D3F18402A
:1015E00094F120E030E0A901C701B6010E94B20CDD
:1015F00087FF03C03092080102C03092090120E049
:1016000030E0A901C701B6010E94110E18161CF4A2
:10161000C701B60103C0C701B60190580E94290D49
:10162000A7EDB0E09B01AC010E94090C20E83EE36D
:1016300040E050E00E94EA0BDA01C9018896A11D42
:10164000B11D80930C0180911103882311F0F12CBE
:1016500002C099E1F92E80E00E940F0780EA0E9403
:10166000750508E011E088E0E82EEA94EE2031F0FC
:10167000F80181918F010E947505F7CFFA94FFEF71
:10168000FF1621F080E00E947505F8CF81E00E94EE
:101690000F0761E080910D030E94C2068FEF0E9448
:1016A0007B078073D9F360E080910D030E94C2062E
:1016B00060E787E00E94200784FF03C081EE0E945C
:1016C0007B07809108010E94840682E991E00E94D4
:1016D0005306809109010E94840682E991E00E94EC
:1016E000530680910A010E94840682E991E00E94DB
:1016F000530680910B010E94840682E991E00E94CA
:10170000530680910C010E94840682E991E00E94B8
:10171000530680910D010E94840682E991E00E94A7
:10172000530680910E010E9484068FE891E00E948A
:101730005306E8E0F1E026E011922A95E9F70E94CD
:10174000890124CEE5E5F2E01382128288EE93E06F
:10175000A0E0B0E084839583A683B78327E331E0DC
:101760003183208325EC30E03587248724EC30E07A
:101770003787268720EC30E0318B208B21EC30E05E
:10178000338B228B22EC30E0358B248B26EC30E03F
:10179000378B268B118E128E138E148EE2EFF2E0B1
:1017A0001382128284839583A683B78389E491E0B0
:1017B00091838083EDE0F3E089E080838AE0818398
:1017C000128280E28383148285E0828788E6809398
:1017D000FE020895052E97FB1EF400940E94010C52
:1017E00057FD07D00E94140C07FC03D04EF40C9454
:1017F000010C50954095309521953F4F4F4F5F4FCD
:10180000089590958095709561957F4F8F4F9F4F6C
:1018100008950E94360CA59F900DB49F900DA49F33
:10182000800D911D11240895A1E21A2EAA1BBB1B45
:10183000FD010DC0AA1FBB1FEE1FFF1FA217B3079C
:10184000E407F50720F0A21BB30BE40BF50B661FB2
:10185000771F881F991F1A9469F760957095809576
:1018600090959B01AC01BD01CF010895A29FB001ED
:10187000B39FC001A39F700D811D1124911DB29FC4
:10188000700D811D1124911D08955058BB27AA2762
:101890000E945D0C0C94D70D0E94C90D38F00E9477
:1018A000D00D20F039F49F3F19F426F40C94C60DA6
:1018B0000EF4E095E7FB0C94C00DE92F0E94E80DB3
:1018C00058F3BA17620773078407950720F079F475
:1018D000A6F50C940A0E0EF4E0950B2EBA2FA02D4F
:1018E0000B01B90190010C01CA01A0011124FF27CD
:1018F000591B99F0593F50F4503E68F11A16F040C8
:10190000A22F232F342F4427585FF3CF46953795C6
:101910002795A795F0405395C9F77EF41F16BA0B8B
:10192000620B730B840BBAF09150A1F0FF0FBB1F39
:10193000661F771F881FC2F70EC0BA0F621F731F82
:10194000841F48F4879577956795B795F7959E3FDF
:1019500008F0B0CF9395880F08F09927EE0F979570
:10196000879508950E949C0D08F481E008950E94D7
:10197000CB0C0C94D70D0E94D00D58F00E94C90DCD
:1019800040F029F45F3F29F00C94C00D51110C94E4
:101990000B0E0C94C60D0E94E80D68F39923B1F369
:1019A000552391F3951B550BBB27AA276217730785
:1019B000840738F09F5F5F4F220F331F441FAA1F19
:1019C000A9F335D00E2E3AF0E0E832D091505040D5
:1019D000E695001CCAF72BD0FE2F29D0660F771F83
:1019E000881FBB1F261737074807AB07B0E809F069
:1019F000BB0B802DBF01FF2793585F4F3AF09E3FEE
:101A0000510578F00C94C00D0C940B0E5F3FE4F37D
:101A1000983ED4F3869577956795B795F7959F5F30
:101A2000C9F7880F911D9695879597F90895E1E07C
:101A3000660F771F881FBB1F621773078407BA07DB
:101A400020F0621B730B840BBA0BEE1F88F7E09536
:101A500008950E94300D6894B1110C940B0E0895F6
:101A60000E94F00D88F09F5798F0B92F9927B75131
:101A7000B0F0E1F0660F771F881F991F1AF0BA9532
:101A8000C9F714C0B13091F00E940A0EB1E0089578
:101A90000C940A0E672F782F8827B85F39F0B93F6A
:101AA000CCF3869577956795B395D9F73EF49095E5
:101AB0008095709561957F4F8F4F9F4F0895E89463
:101AC00009C097FB3EF490958095709561957F4F86
:101AD0008F4F9F4F9923A9F0F92F96E9BB27939534
:101AE000F695879577956795B795F111F8CFFAF444
:101AF000BB0F11F460FF1BC06F5F7F4F8F4F9F4F75
:101B000016C0882311F096E911C0772321F09EE8D2
:101B1000872F762F05C0662371F096E8862F70E038
:101B200060E02AF09A95660F771F881FDAF7880F12
:101B30009695879597F90895990F0008550FAA0B68
:101B4000E0E8FEEF16161706E807F907C0F01216D0
:101B50001306E407F50798F0621B730B840B950BD3
:101B600039F40A2661F0232B242B252B21F4089528
:101B70000A2609F4A140A6958FEF811D811D0895C5
:101B800097F99F6780E870E060E008959FEF80EC30
:101B9000089500240A9416161706180609060895D3
:101BA00000240A9412161306140605060895092E39
:101BB0000394000C11F4882352F0BB0F40F4BF2BA8
:101BC00011F460FF04C06F5F7F4F8F4F9F4F0895E8
:101BD00057FD9058440F551F59F05F3F71F04795DE
:101BE000880F97FB991F61F09F3F79F087950895C3
:101BF000121613061406551FF2CF4695F1DF08C0E2
:101C0000161617061806991FF1CF869571056105FE
:101C100008940895E894BB2766277727CB0197F9A6
:101C200008950E949C0D08F48FEF08950E94290EDC
:101C30000C94D70D0E94C90D38F00E94D00D20F0F1
:101C4000952311F00C94C00D0C94C60D11240C9426
:101C50000B0E0E94E80D70F3959FC1F3950F50E0B5
:101C6000551F629FF001729FBB27F00DB11D639F4E
:101C7000AA27F00DB11DAA1F649F6627B00DA11DF4
:101C8000661F829F2227B00DA11D621F739FB00D9A
:101C9000A11D621F839FA00D611D221F749F33270A
:101CA000A00D611D231F849F600D211D822F762FA3
:101CB0006A2F11249F5750409AF0F1F088234AF080
:101CC000EE0FFF1FBB1F661F771F881F91505040EC
:101CD000A9F79E3F510580F00C94C00D0C940B0E9B
:101CE0005F3FE4F3983ED4F3869577956795B79573
:101CF000F795E7959F5FC1F7FE2B880F911D96958D
:101D0000879597F90895EE0FFF1F0590F491E02D48
:101D1000099481E090E0F8940C948E0EF894FFCF33
:101D20000000803F0000803F00000000000079318B
:101D30004E6F646500324E6F646500334E6F6465AC
:101D400000344E6F646500354E6F646500364E6F2B
:101D5000646500000000001A018700B1006701E21D
:101D600000C000D400000000001E02F1014E02C5B8
:101D700001E901D501C6014D50553630353020639B
:101D80006F6E6E656374696F6E20737563636573E0
:101D90007366756C004D50553630353020636F6E6C
:101DA0006E656374696F6E206661696C6564000DB1
:041DB0000A00200005
:00000001FF
