:100000000C945D000C9485000C9485000C94850084
:100010000C9485000C9485000C9485000C9485004C
:100020000C9485000C9485000C9485000C9485003C
:100030000C9485000C9485000C9485000C9485002C
:100040000C9459030C9485000C94C9030C94A303DD
:100050000C9485000C9485000C9485000C9485000C
:100060000C9485000C94850000000008000201003B
:100070000003040700000000000000000000000072
:10008000250028002B0000000000240027002A0083
:10009000040404040404040402020202020203032E
:1000A0000303030301020408102040800102040836
:1000B0001020010204081020FB0311241FBECFEF03
:1000C000D8E0DEBFCDBF21E0ACE3B1E001C01D92BE
:1000D000AE3EB207E1F711E0A0E0B1E0E0EFFCE0F6
:1000E00002C005900D92AC33B107D9F710E0CDE511
:1000F000D0E004C02197FE010E946B06CC35D107E9
:10010000C9F70E9434040C9476060C94000090E029
:10011000FC01EC55FF4F2491FC01E057FF4F849107
:10012000882399F090E0880F991FFC01EA57FF4F50
:10013000A591B491FC01E458FF4F859194918FB73C
:10014000F894EC91E22BEC938FBF089590E0FC01C2
:10015000E859FF4F2491FC01EC55FF4F3491FC010D
:10016000E057FF4FE491EE2309F43CC0222339F11C
:10017000233091F038F42130A9F0223001F584B514
:100180008F7D12C0273091F02830A1F02430B9F4CF
:10019000809180008F7D03C0809180008F77809355
:1001A00080000DC084B58F7784BD09C08091B000F8
:1001B0008F7703C08091B0008F7D8093B000F0E016
:1001C000EE0FFF1FE458FF4FA591B4919FB7F8942D
:1001D000611104C08C913095382302C0EC913E2B04
:1001E0003C939FBF08959CB59F7D9CBD9CB5937F1C
:1001F0009CBD9CB59C7F9CBD9DB591609DBD682FAD
:100200008091E4010C94A6003FB7F89480914201DC
:1002100090914301A0914401B091450126B5A89B5E
:1002200005C02F3F19F00196A11DB11D3FBFBA2F88
:10023000A92F982F8827820F911DA11DB11DBC01E8
:10024000CD0142E0660F771F881F991F4A95D1F7AD
:1002500008958F929F92AF92BF92CF92DF92EF92CA
:10026000FF920E9404014B015C0185E0C82ED12C55
:10027000E12CF12C0E940401DC01CB0188199909C1
:10028000AA09BB09883E9340A105B10598F321E076
:10029000C21AD108E108F10888EE880E83E0981EA2
:1002A000A11CB11CC114D104E104F10419F7FF90A1
:1002B000EF90DF90CF90BF90AF909F908F90089578
:1002C000CF92DF92EF92FF920F931F93CF93DF9322
:1002D0006C017A018B01C0E0D0E0CE15DF0581F022
:1002E000D8016D918D01D601ED91FC910190F081C5
:1002F000E02DC6010995892B11F02196EECF7E01E4
:10030000C701DF91CF911F910F91FF90EF90DF9088
:10031000CF900895089580E090E00895FC01538DFA
:10032000448D252F30E0842F90E0821B930B5417CF
:1003300010F0CF96089501970895FC01918D828D5C
:10034000981761F0828DDF01A80FB11D5D968C9129
:10035000928D9F5F9F73928F90E008958FEF9FEF34
:100360000895FC01918D828D981731F0828DE80FF0
:10037000F11D858D90E008958FEF9FEF0895FC01AA
:10038000918D228D892F90E0805C9F4F821B910977
:100390008F739927089586E491E00E94BF0121E0C0
:1003A000892B09F420E0822F0895FC01848DDF0160
:1003B000A80FB11DA35ABF4F2C91848D90E00196D8
:1003C0008F739927848FA689B7892C93A089B189C7
:1003D0008C91837080648C93938D848D981306C068
:1003E0000288F389E02D80818F7D80830895EF92CC
:1003F000FF920F931F93CF93DF93EC0181E0888FDF
:100400009B8D8C8D981305C0E889F989808185FDC5
:1004100026C0F62E0B8D10E00F5F1F4F0F731127B4
:10042000E02E8C8DE8120CC00FB607FCFACFE889DD
:10043000F989808185FFF5CFCE010E94D501F1CFEA
:100440008B8DFE01E80FF11DE35AFF4FF0829FB73D
:10045000F8940B8FEA89FB89808180620AC09FB77C
:10046000F894EE89FF896083E889F9898081837037
:10047000806480839FBF81E090E0DF91CF911F91E6
:100480000F91FF90EF900895CF93DF93EC01888D4B
:100490008823C9F0EA89FB89808185FD05C0A88988
:1004A000B9898C9186FD0FC00FB607FCF5CF80810E
:1004B00085FFF2CFA889B9898C9185FFEDCFCE0158
:1004C0000E94D501E7CFDF91CF91089580E090E0C1
:1004D000892B29F00E94CB0181110C940000089512
:1004E0008EBD00000DB407FEFDCF8EB50895CF93ED
:1004F000DF93C82FD62F80E00E94F3008C2F8F71DE
:1005000080620E947002C82F8D2F0E94700281E0CD
:100510000E94F3008C2FDF91CF910895CF93C82FC5
:1005200080E00E94F3008C2F8F710E9470028FEF89
:100530000E947002C82F81E00E94F3008C2FCF919F
:10054000089580E00E948E0281FD0AC080E00E9432
:100550008E02682F626080E00E9477020C9429016D
:1005600008950F931F93CF938C0186E00E948E0213
:10057000C82FC77D0230110511F4C06204C00130DC
:10058000110509F4C8606C2F86E00E94770286E0AE
:100590000E948E0291E0C81390E0892FCF911F91A5
:1005A0000F910895CF93C82F80E00E94F3008C2F05
:1005B0000E947002C82F81E00E94F3008C2FCF911F
:1005C00008950F931F93CF93DF93D82FC62F80E00A
:1005D0000E94F3008D2F8F7180620E947002D82FCD
:1005E00000E011E0CC2339F0F80181918F010E94E5
:1005F0007002C150F7CF81E00E94F3008D2FDF9190
:10060000CF911F910F910895009769F0FC0101901F
:100610000020E9F73197AF01481B590BBC0186E474
:1006200091E00C94600180E090E008958F929F9299
:10063000AF92BF920F931F93CF93DF93CDB7DEB7E7
:10064000A1970FB6F894DEBF0FBECDBF19A24230FE
:1006500008F44AE08E010F5D1F4F842E912CA12CCF
:10066000B12CA50194010E944906E62FB901CA01E7
:1006700001501109EA3014F4E05D01C0E95CD801D1
:10068000EC93232B242B252B61F7C8010E94040334
:10069000A1960FB6F894DEBF0FBECDBFDF91CF910C
:1006A0001F910F91BF90AF909F908F9008950E94DF
:1006B00071061F920F920FB60F9211242F933F9342
:1006C0008F939F93AF93BF9380913E0190913F0191
:1006D000A0914001B091410130913D0123E0230FF1
:1006E0002D3720F40196A11DB11D05C026E8230F6A
:1006F0000296A11DB11D20933D0180933E01909370
:100700003F01A0934001B09341018091420190913B
:100710004301A0914401B09145010196A11DB11D75
:100720008093420190934301A0934401B09345010B
:10073000BF91AF919F918F913F912F910F900FBEDD
:100740000F901F9018951F920F920FB60F921124C1
:100750002F933F934F935F936F937F938F939F93C9
:10076000AF93BF93EF93FF9386E491E00E94D5018E
:10077000FF91EF91BF91AF919F918F917F916F9179
:100780005F914F913F912F910F900FBE0F901F904F
:1007900018951F920F920FB60F9211242F938F93DB
:1007A0009F93EF93FF93E0915601F0915701808161
:1007B000E0915C01F0915D0182FD12C09081809119
:1007C0005F018F5F8F7320916001821751F0E0917C
:1007D0005F01F0E0EA5BFE4F958F80935F0101C0FF
:1007E0008081FF91EF919F918F912F910F900FBE7C
:1007F0000F901F901895E6E4F1E01382128288EEC4
:1008000093E0A0E0B0E084839583A683B78388E279
:1008100091E09183808385EC90E09587848784ECD8
:1008200090E09787868780EC90E0918B808B81ECBD
:1008300090E0938B828B82EC90E0958B848B86EC9E
:1008400090E0978B868B118E128E138E148EE3EEB2
:10085000F1E089E080838AE08183128280E28383F1
:10086000148285E082870895CF93DF9300D000D073
:10087000CDB7DEB7789484B5826084BD84B58160DD
:1008800084BD85B5826085BD85B5816085BD80915B
:100890006E00816080936E001092810080918100D3
:1008A00082608093810080918100816080938100CB
:1008B000809180008160809380008091B10084608D
:1008C0008093B1008091B00081608093B0008091EE
:1008D0007A00846080937A0080917A0082608093AD
:1008E0007A0080917A00816080937A0080917A000A
:1008F000806880937A001092C100E0915601F091D7
:10090000570182E08083E0915201F09153011082FF
:10091000E0915401F09155018FEC808310925E01BB
:10092000E0915A01F0915B0186E08083E0915801EB
:10093000F0915901808180618083E0915801F091AC
:100940005901808188608083E0915801F0915901BC
:10095000808180688083E0915801F0915901808105
:100960008F7D80838091E3010E9487008091E40164
:100970000E9487001FB7F89480913C01811124C028
:10098000EAE9F0E08491EEEAF0E09491E82FF0E0FB
:10099000EE0FFF1FEA57FF4FA591B491EC91E923A9
:1009A00021F461E08AE00E94A6008AE00E948700AC
:1009B0008CB580618CBD8CB580648CBD8DE00E944F
:1009C00087008BE00E94870080913C018F5F8093BD
:1009D0003C011FBF60E08091E3010E94A60081E01E
:1009E0000E94F3000E9429016FE584E00E947702D3
:1009F00082E090E00E94B102882319F081E08093A8
:100A0000E50180E090E00E94B10280E00E948E0249
:100A1000682F6C6080E00E94770260E787E00E94A8
:100A200077026CE485E00E94770282EE0E94D20297
:100A300081EE0E94D2020E94A10280E00E948E02FA
:100A4000682F6E7F80E00E9477026FE381E00E9452
:100A500077026FE084E00E94770280E00E94F3005A
:100A600080E50E94700283E70E94700281E00E948C
:100A7000F3008DE10E948E02682F66608DE10E9476
:100A800077028CE10E948E02682F63608CE10E94E5
:100A9000770281E08093E70180E28093E601609134
:100AA000ED018AE00E94E1026091ED0180E10E9487
:100AB000E1026091E60181E10E94770260E685E053
:100AC0000E94770286E00E948E02887F682F656010
:100AD00086E00E94770280E090E00E94B1020E94CE
:100AE000A10260E08091E3010E94A60081EE0E94D5
:100AF000D20280E00E948E02682F6E7F80E00E940A
:100B0000770283E092E00197F1F71AE086E491E042
:100B10000E94BF01181619060CF0B8C0E12CF12C88
:100B200086E491E00E94BF0118161906B4F40E94F1
:100B3000290186E491E00E949D01082E000C990B8A
:100B4000C0978A30910548F41E9D90011F9D300D7D
:100B500011247C01E20EF31EE3CFFA82E982E12C3C
:100B6000F12C86E491E00E94BF0118161906B4F436
:100B70000E94290186E491E00E949D01082E000C4C
:100B8000990BC0978A30910548F41E9D90011F9DD6
:100B9000300D11247C01E20EF31EE3CFFC82EB82C8
:100BA0008091E701811102C00CE101C000E080E00A
:100BB0000E94F30080EA0E94700289810E94700204
:100BC0008A810E9470028B810E9470028C810E9437
:100BD0007002015010F080E0FACF81E00E94F30033
:100BE00061E08091E3010E94A6008FEF0E94D20293
:100BF0008073D9F360E08091E3010E94A60060E772
:100C000087E00E94770284FF03C081EE0E94D20237
:100C1000C980DA800D2C000CEE08FF08F7FE0EC02C
:100C20006DE286E491E00E94F70166277727CB0109
:100C30006C197D098E099F094AE003C04AE0C7018B
:100C4000B6010E94160386E391E00E940403CB8064
:100C5000DC800D2C000CEE08FF08F7FE0EC06DE2E4
:100C600086E491E00E94F70166277727CB016C1993
:100C70007D098E099F094AE003C04AE0C701B60119
:100C80000E94160388E391E00E9404030E9466021A
:100C90003DCFA1E21A2EAA1BBB1BFD010DC0AA1F4E
:100CA000BB1FEE1FFF1FA217B307E407F50720F0D5
:100CB000A21BB30BE40BF50B661F771F881F991F50
:100CC0001A9469F760957095809590959B01AC0199
:100CD000BD01CF010895EE0FFF1F0590F491E02DA7
:100CE000099481E090E0F8940C947606F894FFCF94
:100CF000314E6F646500324E6F646500334E6F6431
:100D00006500344E6F646500354E6F646500364E85
:100D10006F64650000000000F70160018E0144026D
:0C0D2000BF019D01B10120000D0A000080
:00000001FF
