:100000000C9435000C945D000C945D000C945D0024
:100010000C945D000C945D000C945D000C945D00EC
:100020000C945D000C945D000C945D000C945D00DC
:100030000C945D000C945D000C945D000C945D00CC
:100040000C94B5040C945D000C9425050C94FF04ED
:100050000C945D000C945D000C945D000C945D00AC
:100060000C9457050C945D00810611241FBECFEF40
:10007000D8E0DEBFCDBF11E0A0E0B1E0E4E5F8E1FB
:1000800002C005900D92AA36B107D9F722E0AAE680
:10009000B1E001C01D92A73EB207E1F710E0C5E351
:1000A000D0E004C02197FE010E941D0CC433D1078B
:1000B000C9F70E94BD060C94280C0C940000282F50
:1000C00030912E02313208F04AC080910A0281112B
:1000D000FCCF90912D0242E040930A022093090246
:1000E0002FEF209308021092070230930602EDE0F2
:1000F000F2E0A6EEB1E020E0321721F041914D93FD
:100100002F5FFACF1092E5012091E501990F922B14
:100110009093E5019091E401913061F41092E40133
:100120009091E5019093BB009091BC0093FDF8CFB6
:1001300095EC01C095EE9093BC0090910A0292302C
:10014000E1F3909108029F3F79F08091080280329C
:1001500041F080910802803331F084E005C081E0F5
:1001600003C082E001C083E010920C0210922E02C4
:1001700010920B0208953FB7F8948091E00190919E
:10018000E101A091E201B091E30126B5A89B05C071
:100190002F3F19F00196A11DB11D3FBFBA2FA92F06
:1001A000982F8827820F911DA11DB11DBC01CD0183
:1001B00042E0660F771F881F991F4A95D1F708956F
:1001C000CF92DF92EF92FF920F931F93CF93DF9323
:1001D0006C017A018B01C0E0D0E0CE15DF0581F023
:1001E000D8016D918D01D601ED91FC910190F081C6
:1001F000E02DC6010995892B11F02196EECF7E01E5
:10020000C701DF91CF911F910F91FF90EF90DF9089
:10021000CF900895FC01538D448D252F30E0842F1D
:1002200090E0821B930B541710F0CF96089501971E
:100230000895FC01918D828D981761F0828DDF0108
:10024000A80FB11D5D968C91928D9F5F9F73928FC9
:1002500090E008958FEF9FEF0895FC01918D828DBE
:10026000981731F0828DE80FF11D858D90E008958B
:100270008FEF9FEF0895FC01918D228D892F90E0E3
:10028000805C9F4F821B91098F73992708958FE29D
:1002900092E00E943B0121E0892B09F420E0822FAB
:1002A0000895FC01848DDF01A80FB11DA35ABF4F33
:1002B0002C91848D90E001968F739927848FA68965
:1002C000B7892C93A089B1898C91837080648C93B9
:1002D000938D848D981306C00288F389E02D808168
:1002E0008F7D80830895EF92FF920F931F93CF939A
:1002F000DF93EC0181E0888F9B8D8C8D981305C076
:10030000E889F989808185FD26C0F62E0B8D10E0E5
:100310000F5F1F4F0F731127E02E8C8DE8120CC05A
:100320000FB607FCFACFE889F989808185FFF5CF00
:10033000CE010E945101F1CF8B8DFE01E80FF11D1E
:10034000E35AFF4FF0829FB7F8940B8FEA89FB893D
:10035000808180620AC09FB7F894EE89FF8960832C
:10036000E889F98980818370806480839FBF81E000
:1003700090E0DF91CF911F910F91FF90EF90089542
:10038000CF93DF93EC01888D8823C9F0EA89FB893C
:10039000808185FD05C0A889B9898C9186FD0FC033
:1003A0000FB607FCF5CF808185FFF2CFA889B98908
:1003B0008C9185FFEDCFCE010E945101E7CFDF91F7
:1003C000CF91089580E090E0892B29F00E944701A9
:1003D00081110C940000089585ED8093BC008091FC
:1003E000BC0084FDFCCF10920A0208954091AC013C
:1003F000262F30E0240F311D21323105DCF420910D
:100400000A022430C9F4FC0180E090E0861758F419
:100410003091AC012191DC01A457BE4FA30FB11D57
:100420002C930196F3CF8091AC01680F6093AC01DF
:1004300080E0089581E0089582E008950895E091B4
:100440008B0180918A01E81730F4F0E0E659FE4F05
:10045000808190E008958FEF9FEF089590918B0138
:1004600080918A01981750F4E92FF0E0E659FE4F89
:10047000208130E09F5F90938B0102C02FEF3FEF10
:10048000C901089580918A0190E020918B01821B1F
:1004900091090895CF92DF92EF92FF920F931F93ED
:1004A000CF93DF937C01CB018A0120910B022223A1
:1004B00089F0EB016B01C40ED51ECC15DD0569F08A
:1004C0006991D701ED91FC910190F081E02DC70178
:1004D0000995F3CF642F0E94F601C801DF91CF91F7
:1004E0001F910F91FF90EF90DF90CF900895CF93E1
:1004F000DF931F92CDB7DEB7698320910B022223D1
:10050000D1F020912E02203240F021E030E0FC01B9
:100510003383228380E090E015C080910C02E82FA5
:10052000F0E0E35FFD4F998190838F5F80930C0231
:1005300080932E0205C061E0CE0101960E94F60173
:1005400081E090E00F90DF91CF910895CF93DF93FA
:10055000EA0191E090930B0280932D0210920C021D
:1005600010922E028CEC92E00E94770268818CEC53
:1005700092E00E94770281E00E945F0091E0811189
:1005800090E0892FDF91CF910895089580E090E069
:1005900008951F93CF93DF9300D0CDB7DEB75A8372
:1005A000498391E090930B0280932D0210920C02EC
:1005B00010922E028CEC92E00E94770219816A81DF
:1005C0008CEC92E00E947702612F8CEC92E00E940A
:1005D000770281E00E945F0091E0811190E0892F15
:1005E0000F900F90DF91CF911F910895009769F0C0
:1005F000FC0101900020E9F73197AF01481B590B2E
:10060000BC018FE292E00C94E00080E090E008955D
:10061000CF92DF92EF92FF920F931F93CF93DF93CE
:10062000CDB7DEB7A1970FB6F894DEBF0FBECDBF32
:10063000282F30E040E050E019A28E010F5D1F4FDF
:100640008AE0C82ED12CE12CF12CCA01B901A701F6
:1006500096010E94AE09605DF80162938F01211539
:1006600031054105510589F7CF010E94F602A19697
:100670000FB6F894DEBF0FBECDBFDF91CF911F91B3
:100680000F91FF90EF90DF90CF9008952F923F92BF
:100690004F925F926F927F928F929F92AF92BF9292
:1006A000CF92DF92EF92FF920F931F93CF93DF933E
:1006B000CDB7DEB727970FB6F894DEBF0FBECDBF1C
:1006C000782E662E4E8369018FB7F8948090DC01F6
:1006D0009090DD01A090DE01B090DF018FBF272D4B
:1006E000220F2B83E12C1F82FF24F3949E81892FFC
:1006F00090E09D838C831801412C512CEE81EE16E5
:1007000008F088C0F0920B0270922D0210920C0239
:1007100010922E02662D8CEC92E00E94770281E00E
:100720000E945F00F0920B0210920C0210922E02B7
:1007300080910A028111FCCF8C819D818E199109D3
:100740008132910514F080E290E0813208F080E27D
:10075000F0920A02F0920902FFEFF0930802109261
:1007600007029FEF980F90930602F092E501909197
:10077000E5012B81922B9093E5019091E40191305A
:1007800071F41092E4019091E5019093BB00909177
:10079000BC0093FDF8CF45EC4093BC0003C095EE40
:1007A0009093BC0090910A029130E1F3909107027E
:1007B000981710F480910702E6EEF1E0AAE6B1E0A6
:1007C00090E0981721F021912D939F5FFACF10921E
:1007D0008B0190938A0190918A0180918B019817E7
:1007E00009F451C001151105D9F12FB7F894809182
:1007F000DC019091DD01A091DE01B091DF012FBFFE
:1008000088199909AA09BB0982159305A405B5059C
:1008100038F139C001151105E1F12FB7F894809135
:10082000DC019091DD01A091DE01B091DF012FBFCD
:1008300088199909AA09BB0920E030E080179107BF
:10084000A207B30730F1EE812E2F30E0FF818F2F0A
:10085000FF0F990B82179307E4F42FEF2F8319C032
:10086000C601EF818E0F911DE7FD9A959A838983CA
:100870008CEC92E00E942E02E981FA818083FF8154
:10088000FF5FFF83A8CF8E81813208F080E2E80EFF
:1008900035CF8F8127960FB6F894DEBF0FBECDBF40
:1008A000DF91CF911F910F91FF90EF90DF90CF904C
:1008B000BF90AF909F908F907F906F905F904F9080
:1008C0003F902F900895BF92CF92DF92EF92FF92C8
:1008D0000F931F93CF93DF9300D0CDB7DEB7F82EE1
:1008E000E62EC42EB22ED02E08EE13E09E012E5F0F
:1008F0003F4F41E00E944603882341F14C2D50E0D8
:100900004B1951094F5F5F4F81E090E002C0880FA3
:10091000991FBA94E2F70197042E01C0880F0A9438
:10092000EAF72D2D01C0220F4A95EAF7382F3095AE
:100930009A8193238223892B8A838983AE014F5F17
:100940005F4F6E2D8F2D0E94A60201C080E00F9098
:100950000F90DF91CF911F910F91FF90EF90DF905B
:10096000CF90BF9008950E94230C1F920F920FB654
:100970000F9211242F933F938F939F93AF93BF9325
:100980008091DC019091DD01A091DE01B091DF0149
:100990003091DB0123E0230F2D3720F40196A11DB8
:1009A000B11D05C026E8230F0296A11DB11D20939D
:1009B000DB018093DC019093DD01A093DE01B09315
:1009C000DF018091E0019091E101A091E201B091FD
:1009D000E3010196A11DB11D8093E0019093E10117
:1009E000A093E201B093E301BF91AF919F918F91EA
:1009F0003F912F910F900FBE0F901F9018951F924F
:100A00000F920FB60F9211242F933F934F935F9342
:100A10006F937F938F939F93AF93BF93EF93FF93C6
:100A20008FE292E00E945101FF91EF91BF91AF914F
:100A30009F918F917F916F915F914F913F912F91F6
:100A40000F900FBE0F901F9018951F920F920FB628
:100A50000F9211242F938F939F93EF93FF93E09125
:100A60003F02F09140028081E0914502F091460200
:100A700082FD12C09081809148028F5F8F73209118
:100A80004902821751F0E0914802F0E0E15DFD4F2C
:100A9000958F8093480201C08081FF91EF919F91D3
:100AA0008F912F910F900FBE0F901F9018951F924E
:100AB0000F920FB60F9211242F933F934F935F9392
:100AC0006F937F938F939F93AF93BF93EF93FF9316
:100AD0008091B900887F803609F49CC068F588321F
:100AE00009F45BC090F4803109F454C038F48823D1
:100AF00009F4F2C0883009F44DC0F2C0883109F41D
:100B00004CC0803209F45DC0EBC0803409F468C089
:100B100048F4803309F455C0883309F0E1C080936C
:100B20000802D4C0803509F44FC0883509F45DC08F
:100B3000883409F0D5C0D2C0883909F4C3C0A8F4FC
:100B4000883709F467C038F4883609F463C0803701
:100B500009F460C0C5C0883809F4B4C0803909F40C
:100B60005FC0803809F0BCC05BC0803B09F484C022
:100B700038F4803A09F466C0883A09F47DC0B0C000
:100B8000803C09F4A3C0883C09F4A0C0883B09F468
:100B900086C0A6C08091E50110C0909107028091A7
:100BA0000602981770F5E091070281E08E0F80939E
:100BB0000702F0E0EA51FE4F80818093BB0085EC94
:100BC00082C0809308028AC0E091070281E08E0F04
:100BD000809307028091BB00F0E0EA51FE4F8083D2
:100BE00090910702809106026AC0E091070281E0BD
:100BF0008E0F809307028091BB00F0E0EA51FE4F18
:100C0000808380910902811169C081E08093E401B1
:100C100084EA5DC083E080930A021092CE01CFCFB8
:100C20008091CE01803208F04DC0E091CE0181E08C
:100C30008E0F8093CE018091BB00F0E0E255FE4F15
:100C40008083BDCF85EC8093BC0010920A02809116
:100C5000CE01803230F4E091CE01F0E0E255FE4F5B
:100C600010826091CE0170E08EEA91E0E0E0F0E069
:100C700009951092CE0134C084E080930A0210924C
:100C8000AD011092AC01E0E0F0E009958091AC017B
:100C9000811105C081E08093AC0110928C01E0913C
:100CA000AD0181E08E0F8093AD01F0E0E457FE4F7F
:100CB00080818093BB009091AD018091AC01981729
:100CC00008F47DCF85E88093BC000AC085EC809352
:100CD000BC0010920A0204C0109208020E94EC01AB
:100CE000FF91EF91BF91AF919F918F917F916F9104
:100CF0005F914F913F912F910F900FBE0F901F90DA
:100D00001895EFE2F2E01382128288EE93E0A0E001
:100D1000B0E084839583A683B7832CE031E03183F0
:100D2000208325EC30E03587248724EC30E03787BA
:100D3000268720EC30E0318B208B21EC30E0338BA8
:100D4000228B22EC30E0358B248B26EC30E0378B85
:100D5000268B118E128E138E148EECECF2E0138221
:100D6000128284839583A683B7838EE191E0918379
:100D7000808388E68093D8020895CF93DF9300D0D4
:100D800000D000D0CDB7DEB7789484B5826084BD42
:100D900084B5816084BD85B5826085BD85B581607F
:100DA00085BD80916E00816080936E0010928100FD
:100DB00080918100826080938100809181008160B8
:100DC0008093810080918000816080938000809179
:100DD000B10084608093B1008091B0008160809305
:100DE000B00080917A00846080937A0080917A00CC
:100DF000826080937A0080917A00816080937A008B
:100E000080917A00806880937A001092C100E0910E
:100E10003F02F091400282E08083E0913B02F0913A
:100E20003C021082E0913D02F0913E028FEC808303
:100E300010924702E0914302F091440286E08083E1
:100E4000E0914102F0914202808180618083E091D3
:100E50004102F0914202808188608083E0914102EA
:100E6000F0914202808180688083E0914102F0919C
:100E7000420280818F7D808301E023E042E06BE6C7
:100E80008091D8020E94630400E022E044E06BE11C
:100E90008091D8020E94630422E044E06CE18091DA
:100EA000D8020E946304F090D80208EE13E09E017D
:100EB0002F5F3F4F41E06BE68F2D0E9446038981F3
:100EC0008F7B89838A83AE014E5F5F4F6BE68F2DE8
:100ED0000E94A6029E012F5F3F4F41E065E780918F
:100EE000D8020E944603882339F089818E7790E0EA
:100EF000959587958093D9028091D902843319F40E
:100F00008CE291E002C08AE491E00E94F60284E65D
:100F100091E00E94F6024EE756E066E08091D8022A
:100F20000E94C90249E05FEF68E08091D8020E9408
:100F3000C9024CE055E06AE08091D8020E94C902E3
:100F40004BE150E063E18091D8020E94C9024EEE6D
:100F50005FEF65E18091D8020E94C90248E050E04D
:100F600067E18091D8020E94C90208EE13E029EDE2
:100F700032E04EE06BE38091D8020E94460360911C
:100F8000D9027091DA027627672776270091DB0273
:100F90001091DC02102701271027603821EC72071E
:100FA0007CF061388EE3780714F060E87EE3072E6A
:100FB000000C880B990B0E94FB0A2B013C0106C018
:100FC000412C512C2AE7622E26EC722E20E030E0D4
:100FD00040E05FE3609100017091010180910201A6
:100FE000909103010E94E0096B017C012DEC3CEC27
:100FF0004DE952E40E94E0099B01AC01C701B60132
:101000000E94510A4B015C019B01AC0160E070E061
:1010100080E89FE30E94DF09A70196010E94B00BC0
:10102000609300017093010180930201909303018A
:10103000C090CF01D090D001E090D101F090D201CA
:10104000A7019601C301B2010E94DF09A501940125
:101050000E94B00BA70196010E94E0096B017C0180
:101060006093CF017093D0018093D1019093D2010E
:101070006093D7017093D8018093D9019093DA01DE
:10108000003821EC120784F0B80101388EE318070C
:1010900014F060E87EE3072E000C880B990B0E9489
:1010A000FB0A2B013C0106C0412C512C9AE7692E0A
:1010B00096EC792E20E030E040EA50E460910401A3
:1010C0007091050180910601909107010E94E0094D
:1010D0004B015C012DEC3CEC4DE952E40E94E0092F
:1010E0009B01AC01C501B4010E94510A6B837C8352
:1010F0008D839E839B01AC0160E070E080E89FE3FC
:101100000E94DF09A50194010E94B00B60930401C5
:101110007093050180930601909307018090D3019D
:101120009090D401A090D501B090D601A501940172
:10113000C301B2010E94DF092B813C814D815E8198
:101140000E94B00BA50194010E94E0094B015C01D3
:101150006093D3017093D4018093D5019093D6010D
:1011600020E030E0A901C701B6010E94AB0B1816C0
:1011700024F0C701B601905802C0C701B60120E0B3
:1011800030EC4FE055E40E94AB0B18167CF520E0E4
:1011900030E0A901C701B6010E944C0A87FF04C0D4
:1011A000712C6624639403C077247394612C20E02F
:1011B00030E0A901C701B6010E94AB0B18161CF460
:1011C000C701B60103C0C701B60190580E94C30A07
:1011D000AFEFB0E09B01AC010E94A30920E83EE321
:1011E00040E050E00E948409F22E03C0F12C712CE3
:1011F000612C17FF03C01195019511090D3F18408F
:101200006CF120E030E0A901C501B4010E944C0A54
:1012100087FF03C010E001E002C011E000E020E021
:1012200030E0A901C501B4010E94AB0B18161CF4F3
:10123000C501B40103C0C501B40190580E94C30A9E
:10124000AFEFB0E09B01AC010E94A30920E83EE3B0
:1012500040E050E00E948409E22E03C0E12C10E03F
:1012600000E0802F0E94080387E691E00E94F602CA
:10127000812F0E94080387E691E00E94F602862DE6
:101280000E94080387E691E00E94F602872D0E94E3
:10129000080387E691E00E94F6028F2D0E94080362
:1012A00087E691E00E94F6028E2D0E94080384E6F4
:1012B00091E00E94F6020E94BB006B017C0184E673
:1012C000882E912CA12CB12C0E94BB00DC01CB01FB
:1012D0008C199D09AE09BF09883E9340A105B1054F
:1012E00098F381E0881A9108A108B10828EEC20E8F
:1012F00023E0D21EE11CF11C81149104A104B1046D
:1013000019F70E94E20131CE052E97FB1EF40094DE
:101310000E949B0957FD07D00E94AE0907FC03D02D
:101320004EF40C949B0950954095309521953F4F74
:101330004F4F5F4F089590958095709561957F4FC1
:101340008F4F9F4F08950E94D009A59F900DB49F85
:10135000900DA49F800D911D11240895A1E21A2ED5
:10136000AA1BBB1BFD010DC0AA1FBB1FEE1FFF1F49
:10137000A217B307E407F50720F0A21BB30BE40B99
:10138000F50B661F771F881F991F1A9469F76095E0
:101390007095809590959B01AC01BD01CF0108959A
:1013A000A29FB001B39FC001A39F700D811D1124A6
:1013B000911DB29F700D811D1124911D08955058EB
:1013C000BB27AA270E94F7090C94710B0E94630B9C
:1013D00038F00E946A0B20F039F49F3F19F426F48C
:1013E0000C94600B0EF4E095E7FB0C945A0BE92F7C
:1013F0000E94820B58F3BA17620773078407950798
:1014000020F079F4A6F50C94A40B0EF4E0950B2EC5
:10141000BA2FA02D0B01B90190010C01CA01A00146
:101420001124FF27591B99F0593F50F4503E68F1A1
:101430001A16F040A22F232F342F4427585FF3CFE2
:10144000469537952795A795F0405395C9F77EF4B3
:101450001F16BA0B620B730B840BBAF09150A1F0FC
:10146000FF0FBB1F661F771F881FC2F70EC0BA0F82
:10147000621F731F841F48F4879577956795B7950A
:10148000F7959E3F08F0B0CF9395880F08F0992705
:10149000EE0F9795879508950E94360B08F481E02A
:1014A00008950E94650A0C94710B0E946A0B58F013
:1014B0000E94630B40F029F45F3F29F00C945A0B13
:1014C00051110C94A50B0C94600B0E94820B68F3D5
:1014D0009923B1F3552391F3951B550BBB27AA27ED
:1014E00062177307840738F09F5F5F4F220F331F27
:1014F000441FAA1FA9F335D00E2E3AF0E0E832D0EF
:1015000091505040E695001CCAF72BD0FE2F29D0F1
:10151000660F771F881FBB1F261737074807AB07C3
:10152000B0E809F0BB0B802DBF01FF2793585F4F38
:101530003AF09E3F510578F00C945A0B0C94A50B91
:101540005F3FE4F3983ED4F3869577956795B7951A
:10155000F7959F5FC9F7880F911D9695879597F925
:101560000895E1E0660F771F881FBB1F621773079E
:101570008407BA0720F0621B730B840BBA0BEE1FB3
:1015800088F7E09508950E94CA0A6894B1110C94F6
:10159000A50B08950E948A0B88F09F5798F0B92FE9
:1015A0009927B751B0F0E1F0660F771F881F991F98
:1015B0001AF0BA95C9F714C0B13091F00E94A40B8B
:1015C000B1E008950C94A40B672F782F8827B85F9B
:1015D00039F0B93FCCF3869577956795B395D9F7F0
:1015E0003EF490958095709561957F4F8F4F9F4FFA
:1015F0000895E89409C097FB3EF490958095709506
:1016000061957F4F8F4F9F4F9923A9F0F92F96E94E
:10161000BB279395F695879577956795B795F111C3
:10162000F8CFFAF4BB0F11F460FF1BC06F5F7F4F60
:101630008F4F9F4F16C0882311F096E911C0772372
:1016400021F09EE8872F762F05C0662371F096E87B
:10165000862F70E060E02AF09A95660F771F881F4A
:10166000DAF7880F9695879597F90895990F0008EE
:10167000550FAA0BE0E8FEEF16161706E807F90764
:10168000C0F012161306E407F50798F0621B730BFF
:10169000840B950B39F40A2661F0232B242B252B80
:1016A00021F408950A2609F4A140A6958FEF811D23
:1016B000811D089597F99F6780E870E060E00895C4
:1016C0009FEF80EC089500240A941616170618065A
:1016D0000906089500240A94121613061406050636
:1016E0000895092E0394000C11F4882352F0BB0FC7
:1016F00040F4BF2B11F460FF04C06F5F7F4F8F4F2A
:101700009F4F089557FD9058440F551F59F05F3F64
:1017100071F04795880F97FB991F61F09F3F79F013
:1017200087950895121613061406551FF2CF469595
:10173000F1DF08C0161617061806991FF1CF869517
:101740007105610508940895E894BB2766277727FB
:10175000CB0197F908950E94360B08F48FEF089596
:101760000E94C30B0C94710B0E94630B38F00E9413
:101770006A0B20F0952311F00C945A0B0C94600B1B
:1017800011240C94A50B0E94820B70F3959FC1F35A
:10179000950F50E0551F629FF001729FBB27F00D1F
:1017A000B11D639FAA27F00DB11DAA1F649F662774
:1017B000B00DA11D661F829F2227B00DA11D621FC3
:1017C000739FB00DA11D621F839FA00D611D221F7D
:1017D000749F3327A00D611D231F849F600D211D61
:1017E000822F762F6A2F11249F5750409AF0F1F0E4
:1017F00088234AF0EE0FFF1FBB1F661F771F881F4D
:1018000091505040A9F79E3F510580F00C945A0B1F
:101810000C94A50B5F3FE4F3983ED4F3869577953F
:101820006795B795F795E7959F5FC1F7FE2B880FF2
:10183000911D9695879597F90895EE0FFF1F0590D6
:10184000F491E02D099481E090E0F8940C94280C38
:04185000F894FFCF3A
:101854000000803F0000803F000000007301E000B2
:101864000A01C0013B0119012D01000000007702AB
:101874004A02C6021E0242022E021F024D50553673
:1018840030353020636F6E6E656374696F6E2073DC
:1018940075636365737366756C004D5055363035EA
:1018A4003020636F6E6E656374696F6E2066616964
:0A18B4006C6564000D0A00200000BE
:00000001FF
